:1020000000800020B57500009D7500009D750000E2
:1020100000000000000000000000000000000000C0
:102020000000000000000000000000009D7500009E
:1020300000000000000000009D750000097600000F
:102040009D7500009D7500009D7500009D75000048
:102050009D7500009D7500009D750000A175000034
:102060009D7500009D7500009D750000C554000021
:10207000B5540000913C0000A55400009D7500007F
:102080009D7500009D7500009D7500009D75000008
:10209000000000009D7500009D7500009D7500000A
:1020A0009D7500009D7500009D7500009D750000E8
:1020B0000000000010B5064C2378002B07D1054B1B
:1020C000002B02D0044800E000BF0123237010BDA4
:1020D000D402002000000000F8E20000044B10B51C
:1020E000002B03D00349044800E000BF10BDC046E8
:1020F00000000000D8020020F8E20000F8B50D0052
:102100000C1E1ED00468002C1BD0280009F09AF980
:10211000E6680700301E01D009F094F9874208D123
:1021200000239F420DD0E95CF25C914201D1013362
:10213000F7E70A22A35E002B02D01B01E418E2E7B6
:102140001C002000F8BD4A688B681032934204D20C
:1021500001230B74002318007047103B8B60002B89
:10216000F9D04268002A08D0991A09115181002239
:1021700043605A811A72DA60EDE70360F7E7000006
:10218000F0B5037889B005000F002B2B2DD02D2B37
:102190002CD101352C3B01932B781A00303A092AB7
:1021A00002D92E2B00D0FAE0002000217D4E2B78A2
:1021B0001C00303CE4B2092C1AD8B14224D802D118
:1021C000794B984220D800230A2205F0BFFF002354
:1021D00002940393E3434A1C01D1984214D8029B12
:1021E000039C0135C0186141E1E701350023D2E7C6
:1021F000002B09D1019B002B20D080231B06994284
:1022000002D80CD100280AD00024684EB14220D94F
:102210000A220023013405F079FF24B2F6E77F2279
:102220003B7A93431A000A2313433B720023424232
:102230008B413A607B60019809B0F0BD7F223B7A08
:102240003860796093431A00082313433B720123DB
:1022500054E02B781A00303A092A03D8013424B20A
:102260000135F6E72E2B1AD101352E78303EF6B225
:10227000092E14D84E4B9942F6D802D14D4B9842B4
:10228000F2D80A22002305F061FF0023049605938B
:10229000013C049A059B24B280185941E4E72023AD
:1022A0002A789A430023452A44D16A782D2A27D1D7
:1022B000023501330A260293B44600232E78303EBD
:1022C000F2B2092A32D8624653439A22F3181E19F1
:1022D0005200964228DD029A3B7A7F24002A15D0CC
:1022E000019A00200021002A01D080210906A34381
:1022F0000C243860796023433B72029B01939AE778
:102300002B2A01D00135D5E70235D3E7019A002009
:10231000002A07D028490C22A34313433B7238609C
:10232000796094E72549F6E70135C7E7029A002A64
:1023300000D05B422A78002A31D1E41805F030FF42
:102340001F4E002C01DC1F4E64420025002C14D0CF
:1023500001231C420DD0EB00F3181A685B68029051
:1023600006920793069A079B03910298039907F038
:102370003DFB01356410EDB2E8E7019B002B02D074
:1023800080231B06C9187F223B7A93431A000C2333
:1023900013433B7202000B003A607B6057E7002357
:1023A000ACE7C0469999991999999999FFFF0F003F
:1023B00099990100989999990000F0FF0000F07F29
:1023C000F0CA0000A8CA0000012313B50B4C00930B
:1023D00002213C22200002F067FC0949031E094843
:1023E00000D0094905F082F8084B2000636102F033
:1023F00049FC200002F01AFF13BDC0464403002030
:1024000038CB00004C0E002052CB00000100010030
:10241000F0B51622012502263D4C3E4B85B0636186
:1024200020000092029501968023063A002101F0D7
:1024300046FF092100271B2200912000491902951F
:102440000196392301F0E3FF334B34492361200027
:1024500005F03BF8324B33492361200005F039F891
:102460003149200005F031F8304B67612361304974
:10247000200005F02EF82F49200005F026F82E4BFD
:102480002E492361234B2000636105F022F82C497B
:10249000200005F01AF8162239000092200002955B
:1024A00001968023113201F00AFF092132220091A6
:1024B0002000491902950196392301F0A8FF214B0C
:1024C00021492361200005F000F8204B20492361B9
:1024D000200004F0FEFF1449200004F0F6FF1D4B1D
:1024E000676123611C49200004F0F3FF11492000BB
:1024F00004F0EBFF194B1A492361064B200063617E
:1025000004F0E7FF0E49200004F0DFFF05B0F0BD46
:1025100044030020010001000200120041CC000031
:1025200050001200C80300204ECC000014001C0014
:102530002803002051CC000050001C00160300208E
:1025400056CC0000020029005BCC0000500029009E
:1025500080040020140033007A040020500033006F
:10256000680400207FB5022301251D4C01932E3302
:1025700002950093200050331022002101F09FFEAD
:10258000042301930A331422029500932000603340
:10259000092101F03CFF134B134E236100233169E5
:1025A0006361200004F095FF104D2000296904F0BC
:1025B00090FF0F4BB16923610E4B2000636104F063
:1025C00088FFA969200004F084FF0B4B7169236127
:1025D000200004F07EFF6969200004F07AFF7FBDCF
:1025E00044030020110018005C0000207800002047
:1025F000020026000100010002003400F0B5264B65
:10260000264C85B0636101230293DB1801932E33BE
:102610001022009320005033002101F050FE204F83
:10262000204B39682361200004F053FF1E4E200028
:10263000316804F04EFF1D4D2000296804F049FF69
:102640001B4B79682361200004F043FF7168200070
:1026500004F03FFF6968200004F03BFF154BB968A8
:102660002361200004F035FFB168200004F031FF41
:10267000A968200004F02DFF0F4BF96823612000AA
:1026800004F027FFF168200004F023FFE968200030
:1026900004F01FFF05B0F0BD01000100440300205D
:1026A0005C0000200200140078000020940000204C
:1026B00002001F0002002B000200360010B50028A7
:1026C00002D1FFF7A5FE10BD012802D1FFF74AFF96
:1026D000F9E7022802D1FFF791FFF4E7FFF798FE30
:1026E0000249034804F00CFFEDE7C046C1CB0000EF
:1026F0004C0E002010B500280ED104F093FF174CAB
:102700002368C01A164B984205D90122154B1A703E
:1027100004F088FF206010BD01280AD104F082FF78
:102720000E4C2368C01A104B9842F4D90D4B02226C
:10273000EDE702280AD104F075FF084C2368C01A9F
:102740000A4B9842E7D9074B0022E0E70022054BED
:10275000074908481A7004F0D3FEDCE7980400200B
:102760003F1F00002E0300206F1700009F0F000086
:10277000ABCB00004C0E002070B5244C2378012B0D
:1027800005D104F04FFF224B1860022323702378F9
:10279000022B13D104F046FF1D4D2B68C01A1D4BB0
:1027A0001A881E235343984208D30121082005F0BC
:1027B000F5F904F037FF0323286023702378032BF7
:1027C00016D104F02FFF124D2B68C01A114B1A8836
:1027D0001423534398420BD30021082005F0DEF95F
:1027E00004F020FF00220C4B28601A700423237091
:1027F0002378042B09D104F015FF054B1B68C01A80
:10280000064B984201D90023237070BD8604002036
:10281000880400203C0000208C0400200F270000CA
:10282000F8B5164D6B7B002B12D00124144E154FBA
:1028300033783C70002B04D104F0F4FE124B34705A
:102840001860AC7B002C04D00121092005F0A6F90A
:10285000F8BD04F0E7FE0C4B1B68C01A0B4B1A883E
:10286000142353439842F3D32100092005F096F92D
:1028700028003C70347002F0EBFDE9E7B003002063
:10288000D5030020D4030020D00300203C0000200A
:1028900010B50E2005F0C8F80D4C0E4A23785B00E9
:1028A00098520F2005F0C0F823780B4A5B0098522D
:1028B000142005F0B9F82378084A5B0098521520D7
:1028C00005F0B2F82378064A5B00985210BDC04666
:1028D000400400201C0300200A0300206E04002096
:1028E0005C040020F8B507000E0000240025A64275
:1028F0000ADD6300F85E06F009F9011C281C05F0EA
:1029000027FD0134051CF2E7300006F0FFF8011C3A
:10291000281C05F0B7FEF8BDF0B5484B85B01C7813
:1029200047482100FFF7DEFF2100071C4548FFF75D
:10293000D9FF2100061C4448FFF7D4FF2100051CE5
:102940004248FFF7CFFF0122414B041C1A70414956
:10295000381C05F0A9FF404905F0A6FF3D49071CBA
:10296000301C05F0A1FF07F0B9FE00223B4B07F039
:10297000AFFAC0223A4BD20507F038F807F000FF53
:102980003449061C281C05F08FFF364905F08CFFE2
:102990003049051C201C05F087FF07F09FFE002230
:1029A0002E4B07F095FAC0222D4BD20507F01EF8EA
:1029B00007F0E6FE311C041C381C05F075FF211CD5
:1029C0000290281C05F070FF0390381C07F086FE6B
:1029D000254B03220093022304F0CCFD301C07F0AA
:1029E0007DFE224B03220093022304F0C3FD281C2A
:1029F00007F074FE1E4B03220093022304F0BAFD7D
:102A0000201C07F06BFE1B4B03220093022304F0F3
:102A1000B1FD029807F062FE174B032200930223D8
:102A200004F0A8FD039807F059FE144B032200930D
:102A3000022304F09FFD05B0F0BDC0464004002015
:102A40001C0300200A0300206E0400205C04002008
:102A500041040020EF33533B3333F7400000F83F8D
:102A600066660340EC51D83F28030020160300207F
:102A70007A04002068040020C8030020800400209D
:102A800000B50C490C4B09780C4A95B09B7B927BA6
:102A900002910B4905A8097801910A49897B0091A7
:102AA000094908F0AFFC05A9084804F012FD15B06B
:102AB00000BDC046D4030020D803002044040020F9
:102AC0008C040020B00300208CCC00004C0E0020B1
:102AD00000B5084B97B00193074B084A009308498B
:102AE000084B02A808F08EFC02A9074804F0F1FC8C
:102AF00017B000BD680400207A04002028030020DD
:102B000061CC0000160300204C0E002070B5092493
:102B100013260A250121300005F040F8280004F0B2
:102B2000B7FD0021300005F039F8013C280004F021
:102B3000AFFD002CEED10121132005F02FF870BD60
:102B4000202210B5037A13401A1E02D0FFF7D6FADE
:102B50000200100010BD0000F8B518300F0014007E
:102B60001D000600FFF7ECFF00281DD039003000E3
:102B7000FFF7E6FF011E09D07F22037A1340042BE2
:102B800003D0052B01D0002100E001682A002000BD
:102B900007F0FCFE054D0699280004F09AFC210080
:102BA000280004F0ADFCF8BD2070FCE74C0E0020BE
:102BB000437C002B06D1C3685A1CC2601B78037487
:102BC00001234374007C704710B504002000FFF718
:102BD000EFFF0A2807D8092809D200280AD00123C4
:102BE000002023720AE00D2801D02028F7D100230D
:102BF0006374EBE7207A431E9841013010BD70B535
:102C000005000C00207800280CD02800FFF7D0FF2A
:102C1000002806D02378834205D1002301346B7449
:102C2000F0E7022070BD0320FCE770B504000D0042
:102C3000FFF7BEFF0023A84201D1637401331800DF
:102C400070BD37B5C3B27F2804D80A68501C08602D
:102C5000137037BD00226C4622703F246D4623401E
:102C6000803A134380096B7085B2C3B21F2D0ED812
:102C7000403213436A4693706B460333013B187826
:102C80000028E6D00A68541C0C601070F6E76D4608
:102C9000234000041343800DAB70C3B20F2805DC42
:102CA000202252421343EB7001ABE7E71C40102394
:102CB00080115B4218436B462243EA70287105334A
:102CC000DCE70000F7B505000026FFF771FF6E7422
:102CD00001902800FFF76CFF0024019A03006C7438
:102CE000824255D0A04201D10220FEBD5C284AD1CB
:102CF0002800FFF75DFF0028F6D0264B752838D155
:102D000004276C742800FFF753FF0028ECD04028FC
:102D100005D83038C0B20F2805D90320E5E72023B5
:102D200098433738F6E700232401013F0443FFB2FC
:102D3000A4B26B749F42E5D1A0239B01E318164A0D
:102D40009BB2934202D8A405A60DC2E790239B0133
:102D5000E3189BB22000934206D880238005B4027A
:102D6000800D20435B02C0182900FFF76AFFB0E71F
:102D700002331A78002AD0D09042F9D15B78002B28
:102D8000CBD000226A742A68511C29601370A0E716
:102D90002000AAE773CF0000FF03000000232F28C4
:102DA00006D90133392803D95E2803D97A2804D8F3
:102DB0001800704700234028FAD900235A22824283
:102DC0005B41DBB2F4E7F8B5DEB204000F00052585
:102DD000002E0CD000234374FFF7F6FE051E06D12B
:102DE0007D212000FFF721FF002838D00025280092
:102DF000F8BD2000FFF766FF051EF8D12000FFF7A1
:102E0000E3FE051EF3D13A212000FFF70EFF002854
:102E100036D0236838001D706168FFF76FF900280D
:102E20003FD00100731E0022200000F04FF8051E65
:102E3000DDD12000FFF7C8FE051ED8D17D2120007E
:102E4000FFF7F3FE0028D1D12C212000FFF7EDFE83
:102E5000002815D02000FFF7B7FE051EC7D1236854
:102E600020006360FFF7A4FE2728C2D02228C0D02C
:102E70002000FFF79DFE0500FFF790FF002801D11D
:102E80000325B4E700236374236820005A1C2260E2
:102E90001D70FFF78DFE0500FFF780FF0028F1D1C0
:102EA000ACE7236818702368616901332360380038
:102EB0006568FFF748F9002805D07F22037AC560CE
:102EC00013400372ADE7042591E70000F7B5040055
:102ED0000E001F1CFFF778FE051E01906AD120002E
:102EE000FFF766FE662800D185E01ED8272804D0AB
:102EF0005B2823D0222800D087E02368200063606D
:102F0000FFF7E0FE051E55D17F2123681870236866
:102F100060685A1C2260327A1B1A8A43110004220C
:102F20000A4332723060736044E0742855D07B28C5
:102F300042D06E2800D068E04C4958E07F22337AB6
:102F4000FFB293431A004023134335607560337218
:102F50000525002F2ED06B461B7920006374FFF7E8
:102F600033FE051E26D15D212000FFF75EFE0028FE
:102F700000D075E061693000FFF7E5F8011E00D16F
:102F800072E07B1E00222000FFF7A0FF051E11D17A
:102F90002000FFF719FE051E0CD15D212000FFF770
:102FA00044FE00285CD12C212000FFF73EFE0028C3
:102FB000E0D103252800FEBD7F22337A356093439C
:102FC0001A0020231343337275603B1C002231002A
:102FD0002000FFF7F8FE0500ECE77F22337A244952
:102FE00093431A00062313433372012333702000E6
:102FF000FFF705FEEFE77F22337A357093431A001F
:103000000623134333721B49F1E72000FFF7D0FD7D
:1030100000252027EBB22F280CD939280CD80135F0
:10302000402D1FD0002363746319D8752000FFF76B
:10303000BFFDEFE72B28F2D002002D3AD2B2012AD1
:10304000EDD90200BA43D2B2452AE8D000222000CE
:10305000E3181A7618303100FFF792F80028A8D04C
:103060000025A7E73F23F1E70425A3E76ECF000083
:1030700063CF000068CF00001FB50422144B01216C
:103080001A60002206205960DA73124B5960DA7315
:103090001860114B0138186010485960DA7302F05B
:1030A000DCF90F4802F0D9F90E4B0F4C0293019353
:1030B00001235B42009340220C4B8021200001F051
:1030C000C9FC0B4A0B49200004F05AFE1FBDC04644
:1030D00044040020D8030020B0030020380400205E
:1030E00090040020A0860100440300201405002065
:1030F00000000020B94A000030B5012585B0124B10
:10310000029500229B5E114C0193114B002100227D
:103110009B5E2000142200930E4B01F0DEF920008C
:1031200002F084F8FA20800004F0B2FA29002000AE
:1031300001F011FDFA20A84004F0AAFA00212000B5
:1031400001F009FD05B030BD34000020440300202B
:1031500038000020C3CC000030B51E4C85B02000E4
:1031600001F090FD0121200001F009FC0021012364
:1031700061610293DB1801930A3300930A007433F0
:10318000200001F044F9144B14492361144B1B78BF
:10319000002B1AD01349022B17D01349032B14D03C
:1031A0001249042B11D11249200004F08EF9FFF7C7
:1031B000A3FF104D2878FFF79DFA2878FFF77EFAD5
:1031C000200002F033F805B030BD200004F07DF996
:1031D000EFE7C046440300200200020061CB00007C
:1031E0008604002074CB000084CB00009DCB00003F
:1031F00092CB00002E03002070B54C4C4C4EA544E1
:103200004C49300004F065F904F00CFA4AAC54ABB8
:103210002A224A93636086ABA360E3600023050023
:10322000FF326A442374D37704F0FCF9424B401B0D
:1032300098423AD8300003F031FE0028F4DD18AD92
:10324000C8232A000A21300004F07BF90023EA5C3D
:1032500001337D2A66D10022EA54384E18AD384930
:10326000300004F032F92900300004F032F9354919
:10327000300004F03BF92A217F20FF3169444A9B4A
:10328000CA7F6360E3688243CA77A3606A4600230B
:1032900050A9137453762374039300220A2302A8BF
:1032A000029505950794FFF711FE274B274D0093D4
:1032B0002A68200014232649FFF74EFC254B2000E6
:1032C00000936A6814232449FFF746FC234B20002F
:1032D0000093AA6814232249FFF73EFC214B2000EB
:1032E0000093EA6814232049FFF736FC1F4B2000A7
:1032F00000932A6914231E49FFF72EFC1D4B200062
:1033000000936A6914231C49FFF726FC1B4B1C49D8
:103310000093AA6914232000FFF71EFC86239B005C
:103320009D4470BDC82B00D091E796E7E8FDFFFFF4
:1033300050070020DFCB0000E70300004C0E002008
:1033400032CC00003ECC0000E9CB00007800002029
:10335000E4CB0000F4CB0000F0CB0000FECB00007B
:10336000FACB000009CC000004CC000017CC000010
:1033700010CC000023CC000020CC00002CCC00009E
:1033800028CC000070B5294D2949280002F027F803
:10339000284C2749200002F022F82549264802F04F
:1033A0001EF86B7B002B02D1637B002B0AD001231C
:1033B000224A28001370224A137002F049F82000B4
:1033C00002F046F8FFF7D8F9FFF72AFAFA211D486C
:1033D000090102F046F8002801D0FFF70DFF04F0C4
:1033E00021F9194D194C2B68C01AC72807D904F0C8
:1033F00019F92860FFF74CFA2378013323702378FA
:10340000052B0AD9FFF788FAFFF762FBFFF738FBB5
:103410000F4804F063F800232370C8210D4802F020
:1034200020F8002801D0FFF797FE70BD440400206B
:10343000B80B0000D8030020B00300208C0400204B
:1034400086040020380400200404002040040020EA
:103450004C0E00209004002070B5E1253B4C6D021D
:103460002900200002F0A2FB2900394803F00EFDDC
:10347000384804F00DF93849200004F037F8374D8A
:10348000280000F069FA0121082004F03BFB01212B
:10349000092004F037FB0121072004F033FB002151
:1034A000042004F07BFB0021052004F077FB0021C1
:1034B000062004F073FB0021082004F06FFB0021BC
:1034C000092004F06BFB0121072004F067FBFA20C0
:1034D000800004F0DDF80221122004F013FB01212A
:1034E000132004F00FFB1E49200003F0FFFFFFF73D
:1034F0000DFB642004F0CCF81A49200003F0F6FF1D
:10350000280000F0FBF92800174900F017FA2800FE
:10351000322104F014F81549200003F0F1FFFEF702
:1035200053FFFFF7E9FD124801F030FF114801F0A9
:103530002DFF114801F02AFF04F074F80F4B1049D9
:103540001860200003F0D2FF70BDC0464C0E002072
:1035500050070020C409000084CF0000140500209B
:10356000A1CF0000B0CF0000A0860100BBCF0000BB
:1035700044040020D8030020B00300209804002059
:10358000C9CF000070B506000C008D18AC4207D002
:10359000336821789B683000984720700134F5E744
:1035A00070BD7047704710B50400406802F098F88D
:1035B0000023237610BD10B5406802F0B6F810BDA8
:1035C000F8B5050040680C0002F0AAF82B68E7B2D5
:1035D000260A9B68012810D139002800FF27984748
:1035E0002B68BC4304439B683100280098470302C2
:1035F00020003840184380B2F8BD310028009847B9
:10360000FF262B680002344004439B6839002800E1
:103610009847B4432043EEE710B5040004F082F865
:10362000200010BD10B54B1C0BD0102909D0EFF3B2
:10363000108472B6102905DD02234376002C00D1D8
:1036400062B610BD0123427E1A43427618224A43D5
:103650000449891816228A569340C2691343C361EC
:10366000ECE7C046E0DA00004B1C17D0102915D05B
:10367000437E9B0712D4EFF3108272B618234B439C
:103680000749C9180123897D49B28B40C169994313
:10369000C16100D14176002A00D162B67047C046B0
:1036A000E0DA0000437E002B05D09A0704D5837E24
:1036B000002B00D062B67047DB07FCD5C369024A15
:1036C0009BB2D360F7E7C04600180040037E002B92
:1036D00004D143768376C3610133037670470000DB
:1036E0007FB5036902AE04000D00029172608B4247
:1036F00003D1828AB3889A4226D020000622310064
:10370000103007F043F9606802F001F87379E17A4C
:10371000013B581E8341227B00936068002302F026
:1037200093F933790021013BDBB2022B01D8074A20
:10373000D15C074B2A009D4200D91A00606801F055
:10374000B7FF606801F0D9FF7FBDC046D6CF00004B
:10375000001BB70070B518260400FFF7B7FF330051
:103760000821207A0D4D4343EB18595604F05AFABC
:1037700033000821A07A4343EB18595604F052FA5B
:103780000821607A4643AD19695604F04BFA044BA0
:10379000200006CBFFF7A4FF70BDC046E0DA0000B2
:1037A0000C05002007B5437E00910192002B07D045
:1037B0009A070AD5EFF310835A425341837672B6C3
:1037C0000099019AFFF78CFF07BDDB07F8D5C369A5
:1037D000014A9BB29360F3E700180040F7B500245C
:1037E0000125194B194A5D711A601C71184B194853
:1037F000083301930360184B184F4360184B194E60
:1038000003810D233A00310045750461047583720C
:103810000A3B0476C472037304F0B2FA1248134BE5
:10382000019A4360124B45750381192331000260F0
:1038300004613A0004758372163B05730476C37203
:1038400004F09EFAF7BDC0460C05002000093D00BB
:10385000DCCF0000CC040020240E0020000000205B
:103860000C0B0000A5350000EC0400202C0E0020FD
:10387000171600000020704710B503689C6B0123E9
:10388000A04710BD8C2300229B00C154103BC318DD
:103890005A609A60DA6001238375704710B5036837
:1038A00001211B6B984710BDF8B505000E001700ED
:1038B0000024BC4208D02B68315D1B682800984763
:1038C000002801D00134F4E72000F8BDFC30406A44
:1038D000704770478E239B00C15070478D239B001B
:1038E000C15070470300FC335A6A002A03D01B6A98
:1038F000C018007E704701204042FBE770B506000B
:1039000018250C49006902F0E9F8306901F027FF39
:103910002B000821307D084C4343E318595604F02E
:1039200081F90821707D45436419615604F07AF9E4
:1039300070BDC046A0860100E0DA000070B504004A
:103940000D00006901F020FF2900206902F0C6F88F
:10395000206901F004FF70BD10B5006901F014FF8B
:1039600010BD0000F7B50193FA238026002504005E
:103970009B008360134B760008330F0045602900DD
:10398000009203603200183007F01CF8230020007A
:10399000FC332530DD6132001D6229005D62FF309D
:1039A00007F010F888239B00E3185D609D60DD60E0
:1039B0006B461B78276123756B461B79A575200024
:1039C0006375FEBD18D0000070B5060018250069AB
:1039D00002F05FF8306901F0C2FE2B000821307D53
:1039E000064C4343E318595604F01CF90821707D36
:1039F00045436419615604F015F970BDE0DA000022
:103A000010B50022FFF7E0FF10BD0300802210B5C3
:103A1000FC33DC685200944208D05A6881545A68DA
:103A20000132D2B25A60DA680132DA6010BDF7B5FD
:103A30000400171E019302D100252800FEBD0300DB
:103A40000022FC33DA611A625A620069013201F025
:103A5000CDFE061EF0D0230020691833009301F03C
:103A600058FF01000098FFF7D0FF01252069BD42F3
:103A700014D001F02CFF00280FD0206901F096FE31
:103A80000221206901F09CFE206901F042FF010043
:103A90000098FFF7BAFF0135E8E70600206901F05A
:103AA0007DFE019B002B06D0002E06D0032120694D
:103AB00001F086FEC1E7002EBFD1013DBDE7002326
:103AC00010B5827D9A420CD0882292008218D46868
:103AD00080225200944204D02530FF30FFF795FF3A
:103AE0000123180010BD0300FC33DA68002A09D056
:103AF0009A68805C9A680132D2B29A60DA68013AB8
:103B0000DA60704701204042FBE700228C2370B549
:103B10009B00827504000E00C15C006901F066FE26
:103B2000002806D10321206901F04AFE0225280061
:103B300070BD88239B00E318DD68002D11D02000A4
:103B40002530FF302569FFF7CEFFC1B2280001F014
:103B50008FFE0028EDD10321206901F031FE0325FD
:103B6000E5E7002EE3D00321206901F029FEDEE71E
:103B700010B51830FFF7B7FF10BD70B5040000692D
:103B800001F09CFE002815D0206901F0AEFE00284F
:103B900011D0206901F00AFE0321206901F010FE16
:103BA0008E239B00E558002D35D10023FC34E361C2
:103BB0002362636270BD206901F0A1FE002809D074
:103BC000206901F097FE002804D0206901F09CFED6
:103BD0000028DED0206901F092FE002821D1206962
:103BE00001F07EFE0028E5D0206901F08DFE00285E
:103BF00033D088239B00E318DB68FF21002B05D01E
:103C000020002530FF30FFF76EFFC1B2206901F0C0
:103C100047FEA075CEE7236820001B699847A84798
:103C2000C3E7206901F0C2FD2069032101F0C8FD4E
:103C3000206901F069FE0028BCD0882300229B0087
:103C4000E3185A609A60DA600123A3758D239B0004
:103C5000E3589342AED09847ACE72300FC335A6A4E
:103C6000802320695B009A4206D101F097FD032171
:103C7000206901F0A5FD9DE701F04BFE0100200049
:103C80001830FFF7C2FE206901F090FDEFE7000059
:103C900010B50248FFF771FF10BDC04614050020A3
:103CA00010B51323122202490248FFF75BFE10BD34
:103CB0003C0E0020140500207047F0B51D0089B0AF
:103CC0000EAB00241C5F0FAB1B8816000693A31AD3
:103CD000DA179B18534002936B1ADA179B1853405C
:103CE0000393039A029B0190934205DC23002C006E
:103CF0001D0033000E001900A64205DC2B000D004C
:103D00001900230034001E00331B9BB204934B1B8D
:103D1000DA179B18534007936B4610229A5ED30F15
:103D20009B185B10009301238D4221DA0593B44266
:103D300024DC019B039A1B689B691F00029B934232
:103D400018DD22002900069B0198B847009B079ABE
:103D50009B1A9BB21AB20092002A06DA059AAD1895
:103D6000049A2DB2D3181BB20093013424B2DEE7BB
:103D70005B42DBE7069B2A002100E5E709B0F0BDC6
:103D8000704710B504682469A04710BD37B506AC6C
:103D9000258804680095A46BA04737BD37B506ACED
:103DA000258804680095E46BA04737BD73B506AC61
:103DB0000025655F07AC2688046801960095246C91
:103DC000A04773BDF0B5160004000D0085B0039345
:103DD0000AAB1F8803685B699847039B2268013B15
:103DE0009B191BB200930197976A2B0032002900A0
:103DF0002000B84723682000DB6A984705B0F0BD73
:103E0000F0B505001C000E00170085B00AAB1B883A
:103E1000013C03930368A4195B69984703992A68D6
:103E20000191009723B23100946A28003A00A0471C
:103E30002B682800DB6A984705B0F0BDF0B50E008E
:103E400087B003930CAB029200229B5E05000493A3
:103E50000DAB1B883400059303685B699847039A90
:103E60002B68B21894420ADA059A210000921F6A60
:103E7000029A049B28000134B84724B2EFE7DB6ABA
:103E80002800984707B0F0BD13B501910E24015FDB
:103E90000C22835E02680091146C00221100A0477E
:103EA00013BDF0B5040015000E0087B004930CABF1
:103EB00000229B5E05930DAB1B88039303685B692F
:103EC0009847039A236800925F6A2A00049B310096
:103ED0002000B847059B03995A1E23680091521988
:103EE0005F6A3100049B200012B2B847039A23682E
:103EF00000921F6A2A00059B31002000B8470499F0
:103F0000039A236801390092891909B21F6A2A00AD
:103F1000059B2000B84723682000DB6A984707B05C
:103F2000F0BD7047F0B585B01E000AAB0027DF5F1B
:103F30000BAB1B8814000500029103930268B14289
:103F400010D1BC4202DC3B0027001C000399013465
:103F50000091E31B966B1BB23A0002992800B04710
:103F600005B0F0BDBC4211D1029BB34202DC33006C
:103F7000029E0293029B0399013300919B1BD76B16
:103F80001BB2220031002800B847E9E7536998477F
:103F9000039A2B68019200979F6A28003300220041
:103FA0000299B8472B682800DB6A9847D8E70323B3
:103FB000194010B50822835E81760A24025F012928
:103FC00004D0032902D08381C28110BD8281C381C4
:103FD000FBE700004281C28101225242426102227B
:103FE000002310B5FF32074C0283013A0834FF3A30
:103FF000436004600181818103618376C276037727
:10400000036210BD68D50000F0B58BB0019310AB12
:104010001B780592069311AB1B88012202936B4615
:104020009B880400D21A5B005B421BB209930023F9
:1040300012B2049103920793079B019A934200DB0B
:104040009AE0039B002B0CDB1300013B1BB2019396
:10405000099B02339BB21AB20992039A9B181BB2B6
:104060000393079D0135ABB200936B4600229B5E24
:10407000039A0793009B5B0001339B1804221BB239
:104080000393069B13421AD06B461D8A9F889E8A13
:10409000009BF219E918236812B29B69089509B2CE
:1040A0001D002000029BA847009B2000F618089BDB
:1040B00032B2DD19236829B29F69029BB8470222F8
:1040C000069B13421AD06B461D8A9F889E8A009BCE
:1040D000F21BE918236812B29B69089509B21D000A
:1040E0002000029BA847009B2000F21A089B12B2F6
:1040F000DD19236829B29F69029BB847069B1B07FD
:104100001AD56B461D8A9F8A9E88009BA91BFA18A8
:10411000236812B29B69089509B21D002000029B1A
:10412000A847009B0899F619C91A236832B29F69FB
:1041300009B2029B2000B847069BDB0700D47BE74F
:104140006B461D8A9F8A9E88009BA91BFA1A2368CA
:1041500008959B6920001D0012B2029B09B2A84776
:10416000009B0899BE1BCD1A236832B29F6929B201
:10417000029B2000B8475FE70BB0F0BDF0B51C0014
:104180008FB00692012214AB1B780591079316ABF2
:104190001B8805000893A3B2D11A93405B421BB25F
:1041A0000C9315AB1B8809B209939B189BB20B9318
:1041B0000023039104930D92049BA3427DDA039B99
:1041C0000294002B0BDB631E1BB202930C9B023389
:1041D0009BB21AB20C92039A9B181BB20393049ED3
:1041E000039A0136B6B233B2049373009BB20A93BA
:1041F00001339B181BB20393049A029B93422BDB5F
:10420000079B0D9A134211D06B461A890B995300E4
:10421000CB180699089F8A1A059928687118009783
:10422000076A1BB212B209B22800B8470222079BE4
:10423000134211D06B461A890B995300CB1806997B
:10424000089F8A1A05992868891B0097076A1BB27C
:1042500012B209B22800B847029B9C422BD0079BA0
:104260000D9A134211D0099B0A9A013BD318069A62
:10427000089F059928680132921B09190097076A5F
:104280001BB212B209B22800B8470222079B1342A0
:1042900011D0099B0A9A013B0599D318069A091B6C
:1042A000089C28680132921B0094076A1BB212B264
:1042B00009B22800B847029C7EE70FB0F0BDF0B508
:1042C0008DB01F0012AB150000229B5E0B9107936F
:1042D00013AB0021595E14AB1B88040003936B469B
:1042E0009A8B079BBB4200DD3A1C12B2D30F9B187E
:1042F0005B101E1C8B4200DD0E1C33B2059323683D
:1043000020005B6998476B469B8DB2B20893B3B2AD
:104310000693089B76009B181BB20493BBB20993CB
:10432000B3B20A930A9A099B04999E1A039A2368C6
:10433000009236B25F6A2A0033002000B8476B460D
:10434000ADB29F8B6B1EFB189BB207936B46039914
:104350001C229A5E236800915B6A04999C462000A7
:1043600033006646B047069B039A5D190A9B2DB23F
:10437000FE1A2368009236B21F6A2A0033000B9996
:104380002000B847089B039A5F1E099B0092DF1923
:104390002368BFB21B6A39B29C462A003300200052
:1043A0006646B047039B2A000193012304990093BA
:1043B0002000059BFFF728FE069B2A00FE1A039BA0
:1043C00036B201930223310000932000059BFFF7D2
:1043D0001BFE079B069A31009D1A039B2DB2019389
:1043E00004232A0000932000059BFFF70DFE039B8A
:1043F0002A0001930823049900932000059BFFF7EE
:1044000003FE23682000DB6A98470DB0F0BDF0B5CD
:104410008DB01E0012AB0B9200229B5E0F00059325
:1044200013AB0021595E14AB1B88040006936B4646
:104430009A8A059BB34200DD321C12B2D30F9B183F
:104440005B101D1C8B4200DD0D1C2BB20A932368F0
:1044500020005B699847BBB207930699ABB20893FB
:10446000079B0191AAB205996D009F182268B3B20B
:10447000AEB200913FB209939B1BD56939000B9AEC
:1044800020001BB2A847089A0B9B944663441DB2B8
:10449000059B2000013B9E1B079B36B2591E099BC2
:1044A00001965918069B891A029301232A0000934A
:1044B00009B20A9BFFF762FE069B2A0002930223C1
:1044C0003900009320000A9B0196FFF757FE2368EE
:1044D0002000DB6A98470DB0F0BDF0B58DB00893B1
:1044E00012AB039200229B5E0791049313AB002250
:1044F0009B5E0400099314AB1B880A9303685B69F5
:1045000098470722049B039FD91DCB1713405B18C4
:10451000DB10059300231D0001930B92039ABBB29D
:1045200006939B1A099A1BB29A422BDD0023049A28
:1045300093421EDA9AB202920B9A6D0099B2EDB2D2
:10454000114204D1089A0199DB105218D55C6BB264
:10455000002B0ADA079B029A2000D118236809B2BF
:104560009B693A001E000A9BB047029E013633B297
:10457000DDE7059A019B9446069F6344013701934A
:104580003FB2CBE723682000DB6A98470DB0F0BD4F
:10459000F0B595B01D001AAB1B88040005931BAB4A
:1045A0001E881CAB1B78089103931DAB1B780492EB
:1045B0000293036A002B00D0C4E00C22835E8B427E
:1045C00000DC7DE00E22835E049A934278DD0623B0
:1045D000039A53435B18002B72DD029B049ADB00A5
:1045E0009B18002B6CDD037F002B03D1AF2D01D96D
:1045F0000135EDB2236820005B69984705235D43D0
:104600000B9300230793984B5B190F93079A0F9B0B
:104610009B5C0A936B469B8B09936B469B890D931E
:104620006B460D9A1F8C099B5343FB181BB20E93CC
:1046300008230C930023069301220A9B206813424F
:1046400052D06B461A8B198A039B012B3AD1029BDD
:10465000012B37D1099B52188569D919059B12B2D4
:1046600009B22000A847069B01335BB206930A9B60
:104670005B080A930C9B013BDBB20C93002BDBD154
:10468000079B01335BB207930B9B013BDBB20B93A0
:10469000002BBBD1059BB3420ED0039B2268012B9C
:1046A0003FD1029B012B3CD105370096156A39B2E8
:1046B0000733049A2000A84723682000DB6A984744
:1046C00015B0F0BD6B460C255B5F029D6A438A18EE
:1046D000059912B2019169460825495F0091C569A3
:1046E0000E992000A847BEE7059BB342BBD06B469E
:1046F000198B1A8A039B012B0AD1029B012B07D12C
:10470000099B5218D91912B209B285693300A8E77A
:104710006B460C255B5F029D01966943521812B2ED
:10472000D9E76B460C215B5E05210D98019641434C
:1047300002987918C0000090D56909B2049A200047
:10474000A847B9E71A7AAD1AEDB25A68ED001B68AE
:10475000551913932B880993AB780D93EB7811932C
:104760000523EB560E930623EB560F93039B012B69
:1047700002D8029B012B56D96B4638229B5E0B93C5
:104780006B463C229B5E0C930027236820005B69EC
:10479000984707970697119B069A9A4200D38BE792
:1047A0006B461B8A00260A930C9B9B18029A534364
:1047B0000A9AD3181BB210933B000D9A96424BD223
:1047C0005A1CD2B212920722134207D1099B0999AF
:1047D000139A0133525C9BB2079209936B461B7F7D
:1047E0005BB2002B17DA6B46198C039B2068012BF8
:1047F0001DD1029B012B1AD10A9B0F9A9A18069B76
:10480000D2180E9B12B2C918836989191D0009B20A
:10481000059B2000A847079B01365B00DBB207938E
:10482000F6B2129BC9E700230C930B93ACE76B46DF
:104830000C229B5E0B9A039D92196A438918059A74
:1048400009B201926A460825525F0092C2692000AF
:104850001500109AA847DEE7069D0D9B0135FF184D
:10486000EBB2FFB2069396E768D00000F0B5026A9B
:1048700085B004000B00002A34D10A2908D1437EF8
:104880000282DB00628A9B186382012005B0F0BDC2
:104890000D29FAD0E17E007E657E00290ED010261B
:1048A000A15F0626464389190C27E65FB14205DD64
:1048B0001226A15F2282EA00521862820290E08AE8
:1048C0001221625E0190A08A1026A15F00900395DC
:1048D0002000FFF75DFE0622237E5343228A9B18A9
:1048E0002382D2E70A2905D100230382127B437E6B
:1048F0005343C7E70D29C8D0117A8B42C5D3907AAC
:104900009842C2D3591AC9B25068C9004518AF7845
:10491000002F28D0E978002925D0E17E207E667E10
:10492000002913D005216956C91941438C4610212D
:10493000675EBC440C21675EBC4507DD1227E15F62
:1049400000272782127B7243521862820290E08A0B
:104950001221625E0190A08A1027E15F0090039609
:104960002000FFF715FE2B79227EB6E7002900D143
:1049700001310176002A00D101324276704710B52C
:104980000A00FFF7F3FF10BDF0B500291BDB0C2573
:10499000445F8C4217DD002A15DB0E25445F9442EC
:1049A00011DD847E022C0FD0032C16D0012C04D1F3
:1049B000D2430489A4180A0021B2012B13D0002B82
:1049C00022D0022B32D0F0BD0489013C611AD443BD
:1049D000428909B2121912B2EFE74489013C641A04
:1049E000110022B2E9E70725D4172C40A4182A4069
:1049F00093400827C65FE41074436118C46A6118C5
:104A00000A7813430B70DEE70724D31723409B1863
:104A10000826855FDB106B435918C36A224059187A
:104A2000012393401A000B789343EBE70724D31735
:104A300023400826855F9B18DB106B435918C36A17
:104A4000012022409040020059180B785A400A7009
:104A5000B9E7000070B5002504001E0012B204ABD7
:104A600009B25D57FFF7B6FA104B083323600023F5
:104A700063629E4200D10E4E2100FF223331A662B6
:104A8000E3620A704A708A70CA7022003732157069
:104A9000059A2000A265069AE265064A626622002F
:104AA000643213710123537170BDC04660DA000097
:104AB0001405002000093D00054B10B50833040023
:104AC0000360C06A002801D005F044FF200010BD3B
:104AD00060DA0000F8B50400806A0D00002814D0E8
:104AE0002300303319780368DB6A9847A06A0021F5
:104AF00003681B689847A06A290003681B689847E9
:104B0000A06A03685B6B9847F8BD226C216D13683F
:104B1000606A8B431360002804D0036829009B68F7
:104B20009847F1E708218020E36BA26BA76C166819
:104B300028420ED03E4316601E68E76C01393E43A2
:104B40001E601E68E76C4008BE431E600029EDD160
:104B5000DAE7BE43EFE770B50400806A0D00002875
:104B600012D00368A16D9B6A984729004D1EA94188
:104B70002000A631FFF7AEFFA06A002812D003681C
:104B8000E16D9B6A984770BD606A002804D0036895
:104B9000616EDB69A26E9847626C616D13688B432E
:104BA0001360E2E7626C616D1368606A0B43136027
:104BB0000028E8D003681B6A9847E4E7F7B50400CB
:104BC000806A8B180D00019300282BD02700036802
:104BD00030373978DB6A9847A06A002103680126DC
:104BE0001B689847A06A019A0368954217D0FE2E69
:104BF0000CD95B6B9847A06A397803680126DB6A99
:104C00009847A06A002103681B689847A06A297822
:104C1000036801361B689847B6B20135E2E75B6B63
:104C20009847F7BD226C216D13688B431360019B7D
:104C3000AB42F6D02B78606A0093002805D0036859
:104C400000999B6898470135F1E708208026E36BBF
:104C5000A26BA76C0099BC4617680E420FD0614644
:104C60000F4317601F68E16C01380F431F601F6816
:104C7000E16C76088F431F600028EAD1E3E76146C4
:104C80008F43EEE7072110B50A22835E0733DA1758
:104C90000A40D2180821435ED2105A43C06A00214C
:104CA00005F090FE10BD0000F0B587B004930CAB8A
:104CB0001B7804000593C36A0E001500002B1BD05F
:104CC0002000FFF7DFFF0A23E25E0823E15E202ACF
:104CD00025DC203AD30F9A180B00733BD90FC91863
:104CE000012302931F335210491001935333009351
:104CF00012B209B2B04B24E00A22835E07220733C6
:104D0000D8171040C0180822A35EC010584305F001
:104D100017FEE062031ED3D1180007B0F0BD403A81
:104D2000D30F9A180B00523BD90FC91801230293D5
:104D30003F33019312335210491000939F4B12B22C
:104D400009B22000FFF7C9FB230031331E70A06AAF
:104D5000002800D19CE0002D00D097E00A23E55EFA
:104D6000203D6B1E9D413C35230030331D70059B5B
:104D7000002B00D11BE10368DB699847049B002BE3
:104D80001BD02500002037352856002815DBC0B27F
:104D9000012102F0B7FE0121287802F0FFFE012078
:104DA00002F076FC0021287802F0F8FE0A2002F0DA
:104DB0006FFC2878012102F0F1FEA06A002800D1E2
:104DC000CBE00368A16D9B6A984704227C492000D0
:104DD000FFF7F4FE618920000139C9B2FFF77AFEBE
:104DE0002500784904222000FFF7E8FE0023313532
:104DF000EB561421012B00D104392000FFF76AFE85
:104E00002600042270492000FFF7D8FE8F23603669
:104E10003370A3686D4A022793420BD06C4A9342C9
:104E200000D0A8E00022AA56CF23012A00D1303BAF
:104E300012273370DA212000FFF74CFE39002000E2
:104E4000FFF748FE81212000FFF744FE3178200063
:104E5000FFF740FED9212000FFF73CFE0023EB5670
:104E6000F121012B00D1CF392000FFF733FE2000C4
:104E700006225849FFF7A2FEA06A002800D188E068
:104E80000368E16D9B6A9847012345E76DB26BE7C4
:104E900025002700353528780121363702F032FE0B
:104EA0003878012102F02EFE002318210126EB564E
:104EB000494D4B435A574948D201121822643200D7
:104EC000EB185B689A4000232265FB564B435A5708
:104ED0004349D2015118121862643200EB185B6822
:104EE000606A9A40130062650A6913430B610028E7
:104EF00006D0059B002B00D140E70368DB6A3CE746
:104F0000270033373100387802F0FCFD23003433BA
:104F100005931878310002F0F5FD00231821FB56A7
:104F20002E484B435A57EB18D2011218A263320095
:104F30005B689A40059BA2641B785BB24B435A574F
:104F4000ED186B6826499E40D2015118E6640B6942
:104F50001218B343E2630B6110E7606A002804D0C3
:104F60000368616EDB69A26E9847626C616D1368BD
:104F70008B43136029E71B4A0227934200D059E76D
:104F80000022AA56AF23012A00D19F3B337002278B
:104F900050E7626C616D1368606A0B431360012314
:104FA000002800D1B8E603681B6A98476CE7049BA9
:104FB000002B00D0E5E604E780D80000C0D5000053
:104FC000C8DA0000CCDA0000D0DA0000800020004F
:104FD00080004000D4DA0000E0DA00001044004114
:104FE0000044004160001000F0B5140005AA1688C6
:104FF000002C41DB0A25425FA2423DDD002902DA96
:105000005B1800211BB20822855E5A18AA4201DDF6
:105010006B1A1BB2002B2FDD0727E2173A4012193B
:10502000D2105543C26A01203C40A0406918521872
:10503000C0B2012E0CD0002E13D0022E1CD1013B89
:105040001BB2591C18D01178414011700132F6E79B
:10505000013B1BB2591C0FD0117801431170013272
:10506000F6E7C043C0B2013B1BB2591C04D0117813
:10507000014011700132F6E7F0BD0000F0B505AC5B
:105080002588002976DB0824065FB14272DA002AFF
:1050900002DA9B1800221BB20A27C45FD718A74266
:1050A00001DDA31A1BB2002B64DDD2B2DCB2D3083F
:1050B00073435918C36A591807231A401FD0013384
:1050C0009A1A314BD2B29B5C944254D2FF26171BE2
:1050D0003E413340012D06D0002D08D0022D49D18C
:1050E0000E78734001E00E7833430B7002E00E78C7
:1050F0009E430E7094423DD30826835FC918A31ABD
:10510000DBB2072B22D9022D10D11A000C78083AF5
:10511000E4430C700825445FD2B20919072AF5D878
:105120000722134026D0194AD35C19E02C00621ED6
:1051300094411A006442E4B20C700827C65F083A32
:10514000D2B28919072AF7D807221340002B11D0B1
:105150000E4AD35C012D06D0002D08D0022D09D1B6
:105160000A78534001E00A7813430B7002E00A7892
:105170009A430A70F0BD012DB5D0002DB7D0022D95
:10518000AED08919BBE7C046B8DA0000C0DA00002B
:1051900037B5140006AA1588827E022A0DD0032A8C
:1051A00018D0012A11D1E2430489A41824B20A00BC
:1051B00000952100FFF762FF0BE0E2434489C91824
:1051C000A418028924B2511A09B200952200FFF7EF
:1051D0000BFF37BD4289C918511A09B2E7E737B545
:1051E000140006AA1588827E022A0DD0032A18D040
:1051F000012A11D10289E418141B24B20A00009577
:105200002100FFF7F1FE0BE0CA430189E418891879
:10521000428909B2141B24B200952200FFF72EFF29
:1052200037BDCA434189891809B2E7E7F7B50400D9
:10523000806A00284DD00368A16D9B6A98470522BB
:1052400050492000FFF7BAFC218920000139C9B27A
:10525000FFF740FC07210A23E25EA06A0732D3175A
:105260000B409B182289DB1053439BB20093E66AE4
:10527000002846D02700036830373978DB6A984722
:10528000A06A4021036801251B689847009BA06A1B
:10529000013B9BB20093009A036811003A4A914285
:1052A00025D0FE2D0CD95B6B9847A06A397803682E
:1052B0000125DB6A9847A06A402103681B6898476C
:1052C000A06A3178036801351B689847ADB2013692
:1052D000DCE7606A002804D00368616EDB69A26EB7
:1052E0009847626C616D13688B431360A7E75B6B33
:1052F0009847A06A002838D00368E16D9B6A9847F8
:10530000F7BD226C216D136801960B431360009B5F
:10531000013B9BB200931A001B4B9A42E9D0019BC0
:10532000606A1978002806D003689B689847019B3B
:1053300001330193EBE708208025E36BA26BA76C98
:1053400016680D420ED0374317601E68E76C0138AF
:105350003E431E601E68E76C6D08BE431E60002859
:10536000EDD1E4E7BE431660EFE7626C616D136850
:10537000606A0B4313600028C2D003681B6A984719
:10538000BEE7C046DADA0000FFFF00000300026853
:105390005B6810B5D0B20021002B00D1022102F0D1
:1053A000B1FB10BD10B50068C0B202F023FC10BD07
:1053B00010B50400FFF7F6FF6368984202D10120A0
:1053C000A07310BD0020FBE70B7810B55B000C004C
:1053D0000B70FFF7EDFF23781843207010BD70B5F8
:1053E0000D00010004000F31FFF7EEFF237DE07B8D
:1053F000002B2AD138229043C02805D1E373013312
:105400002373637A013363723822E37B9343072B60
:1054100009D1F833E37302F005F90123E372237A2B
:10542000206101332372E37BFF2B01D0002070BD8C
:1054300002F0F8F82369C01AA842F7D30120A37A32
:1054400060731B18A3722075F1E70028FBD0EDE70D
:105450000023C372037343737047002303704380B8
:10546000704770B504000D0002F0DCF8636800229C
:10547000C31A9D4201D860600132100070BD10B5A2
:1054800001211A2002F03EFB01211A2002F086FBC6
:1054900001211B2002F036FB00211B2002F07EFBC5
:1054A00010BD000010B5024801F0A7FE10BDC046B7
:1054B0005007002010B5024801F09FFE10BDC04605
:1054C0009409002010B5024801F097FE10BDC046B7
:1054D000D80B0020F0B51F4985B01F4800F058F8E0
:1054E0001E491F4800F054F81E4D1F49280000F0C7
:1054F0004FF81E4E1E49300000F04AF81D491E4864
:1055000000F046F81D4F1E49380000F041F8012414
:10551000032339000093019423000022194801F06D
:10552000E5FD00233100019300941D331E2216482F
:1055300001F0DCFD19230393013B0293163B019319
:105540000094143317222900104801F08BFD05B098
:10555000F0BDC046000800421C0E0020000C0042B6
:10556000240E00202C0E002000100042340E0020DB
:1055700000140042001800423C0E0020440E00209F
:10558000001C00425007002094090020D80B002086
:1055900000230371016070479446F0B59E1E721E91
:1055A00096416246056892072F6836063A433243B1
:1055B0002A60072505AC24780068A401294021430E
:1055C00042680024022B00D05C0311432143416058
:1055D000F0BD30B5C0250368AD031C6812052A4034
:1055E0002243C0240904A402214011431960036826
:1055F0005A6814435C6030BD0123026811680B4394
:10560000136003681A68D207FCD4DA69D207F9D4A8
:1056100070470223026811680B4313600268D36964
:105620009B07FCD470470268137E9B0702D4037962
:10563000002BF9D1002303717047002203685A83BD
:1056400070470368187E4007C00F70470368187ED4
:10565000C0097047802302685B42117E0B431376BA
:1056600070470368588B8007C00F70470223026899
:10567000518B0B43538370470368187EC007C00FDC
:1056800070470368188DC0B2704703681A7ED2074E
:10569000FCD589B2198501230371180070470122D6
:1056A00003689A757047012203681A7570470000F5
:1056B00070B5012604684B0833403140256809075E
:1056C0005B070B432B43236004685100034802F03F
:1056D00069FB0138C0B2207370BDC046006CDC02AB
:1056E0000123026811680B43136003681A68D2072C
:1056F000FCD4DA69D207F9D4704702230268116832
:105700000B4313600268D3699B07FCD4704703689E
:10571000DA699207FCD402211A688A431A6070473A
:10572000036818684000C00F70470268936A5B0AFC
:105730005B021943916203681A7E5207FCD5986A8E
:10574000C0B270470123026811680B4313600368FD
:105750001A68D207FCD4DA69D207F9D47047022359
:10576000026811680B4313600368DA699207FCD47E
:1057700030215A8B8A43110010220A435A8302684F
:10578000D3695B07FCD470470221026813688B431E
:1057900013600268D3699B07FCD4704780230268BA
:1057A000DB02116851680B4353607047036803497B
:1057B0001A685A680A405A607047C046FFFFFBFFEC
:1057C000032230B5036811401C68074D5A6809046C
:1057D0002A40E4061143640F5960052C03D1026886
:1057E000D3695B07FCD430BDFFFFFCFF70B50568D3
:1057F00004006B8B9B069B0F022B0DD06B8B002044
:105800009B069B0F032B32D06B8B9B0704D56B8BB6
:105810009B069B0F012B2AD16B6A49001143DB0ABF
:10582000C9B2DB020B436B622368002A13D11A7ED4
:10583000D207FCD55B8B9B069B0F022B04D049083B
:1058400000222000FFF7D2FF2368588B4007C30FC8
:10585000012058400BE0187E8007C00FF4D11A7E5B
:10586000D207F8D5C022596892020A435A6070BD27
:105870000368283319700268107EC007C30F508B6D
:10588000002B06D1C007C00F08D1538B9B07F3D55F
:1058900070474007C30F01205840F9E71800F7E7A9
:1058A000036828331970036800201A7E520704D554
:1058B000588B01234007C00F584070470368186891
:1058C000C006400F043843425841C0B270470368D5
:1058D000588B8006800F023843425841C0B270474F
:1058E0000368187E4007C00F70470368187EC00722
:1058F000C00F70470368588BC006C00F704703681D
:10590000187E8007C00F70470368588B0007C00FD0
:10591000704703681A68D206520F052A05D11A7E0D
:10592000920702D41A7ED207F9D528331878C0B26C
:10593000704700000368214A30B593422FD0204AB7
:1059400093422FD01F4A93422FD01F4A93422FD009
:105950001E4A93422FD01E4A93421FD10E23192272
:105960000121032599401B48C024016099082B4060
:10597000AB40FC359D4089000918A4000859A84394
:10598000C0259D402B0003430B518023DB011A43AC
:10599000114B5A805A7852B2002AFBDB30BD0923E2
:1059A0001422DDE70A231522DAE70B231622D7E7B4
:1059B0000C231722D4E70D231822D1E70008004258
:1059C000000C004200100042001400420018004287
:1059D000001C004200E100E0000C0040F8B50400AB
:1059E0000F0016001D00FFF7A5FF2000FFF704FEC3
:1059F0001C21BB000B4071072268090C0B4313608C
:105A0000842322689375012F1AD11021012E00D012
:105A100008390C4B69431868C00002F0C3F907222B
:105A2000216802408B895203DB04DB0C13438B811A
:105A3000226803049089DB0C400B400318439081DB
:105A4000F8BDC046D4000020F7B50600019308ABAE
:105A50001F780D001400FFF743FE3000FFF76AFFC8
:105A6000C022240592031440BA070C2717433C4375
:105A7000C0270722BF022D0433683D4025431D6027
:105A8000019B316813401A0080239B0213434B6033
:105A9000F7BD70B504000D001600FFF74BFF2000A6
:105AA000FFF750FE1C2221686D000B6893431A001B
:105AB00010231343FF220B60236815405D62002E04
:105AC00004D001232268516A0B43536207232268E2
:105AD00093752268D3695B07FCD470BDF8B50400E8
:105AE0000F00FFF727FF2000FFF72CFE142223688A
:105AF00079001A600C4B25681E68300002F052F9DC
:105B00000A490400300002F04DF97D23FA21584380
:105B1000C90002F047F9FF23241AE868053C1C403D
:105B200098430443EC60F8BDD400002040420F00CD
:105B30000020704770B50F26CB1D0139020032409E
:105B4000D5B22C0000093034092A00DD07341C705E
:105B5000013B8B42F2D170BD10B50C000B4B1868A5
:105B6000FFF7E8FF21000A4B08311868FFF7E2FF52
:105B70002100084B10311868FFF7DCFF2100064BAD
:105B800018311868FFF7D6FF202010BD0CA0800048
:105B900040A0800044A0800048A0800008B4024BD0
:105BA0009C46103808BC6047595B0000704770473E
:105BB0003F20704713B56B460268D97107335468AC
:105BC00019000122A04716BD70B50A260B7892B0C5
:105BD0006E44023305000B703C220021300004F0BB
:105BE000F1FE394801AC0690384824210790062080
:105BF00020776846364AA1742281364A364BA28104
:105C0000FD3AFF3A8018C177684623390630C177DC
:105C100068460730C17702A8C1770720F2770326CC
:105C200008316944C87703A9CE7710212B366E441A
:105C30003170092621851F3169440E700CA9053E7B
:105C40000E7033212380022369440B7006360DA9A0
:105C50000E7022493536A1863B216E44307010A863
:105C60006274E27702703D3269446A440B701370CB
:105C700040210022E37023716371A37341336B44AD
:105C8000218719705A702B7DC039A370A372637776
:105C90000133DBB2A3776A7D0B200D006844154306
:105CA000C5773120684403703A23501C6B44187048
:105CB000412302320A436B441A70210042220848F1
:105CC00000F004FD12B070BD10010424020605248A
:105CD0000904000001020000080B00000705000095
:105CE000B00E002008B4024B9C46103808BC604738
:105CF000C95B0000F8B5027D0B7904000D00002798
:105D00009A420CD10B784E78A12B0AD1212E06D1C4
:105D10000100072234311C4800F0D8FC013738005C
:105D2000F8BD212BFBD1202E23D1010007223431D5
:105D3000154800F00DFC9623626BDB009A421FD1E0
:105D40003B342378DB071BD4FA2001F0CBFF002182
:105D50000D4800F0C3FD0127232EE0D1EB78AA788F
:105D60001B021343094A00210748136000F0B6FDE7
:105D7000D5E7222EEFD103008A783B331A70DAE799
:105D800001F0BAFFE3E7C046B00E0020CC000020CF
:105D900008B4024B9C46103808BC6047F55C000014
:105DA00010B534300822002104F00CFE10BD0000B4
:105DB00010B5417D006A013100F002FB034B1B6806
:105DC00001335A1E9341181810BDC046D000002060
:105DD00010B5417D006A023100F008FB10BD10B51E
:105DE000417D006A023100F0CFFA10BD70B50D00A0
:105DF000417D0400130002312A00006A00F0BCFB60
:105E0000002801D10123636070BD000010B5054C6E
:105E100023685A1C04D103685B699847030020601B
:105E2000180010BDD0000020074A0300106810B50C
:105E3000411C03D001235B42136010BD597D186AD9
:105E4000013100F049FBF8E7D000002070B50500F3
:105E500001F0E8FBF423FF330024984207D93B35D7
:105E60002C780A20631E9C41E4B201F011FC200052
:105E700070BD00207047704770470000FA239B00F8
:105E800010B58360114B0022C38203002833836165
:105E90000F4B04004260C261180050332361083088
:105EA000631D21622060DA770A4A2F3303CA03C3D5
:105EB0008323A362813BE3628033236301F0CAFA48
:105EC0002100103101F098FA200010BD03020000FB
:105ED00000DE0000F8DD0000022110B5094B1A6851
:105EE000437D5B01D318FF339C7A21439972437D34
:105EF0000133DBB25B01D3180122FF33997A0A43E5
:105F00009A7210BD6813002010B502490248FFF7CD
:105F1000B5FF10BDB00E00204C0E0020704710B52C
:105F2000040001F0FFFB200010BD0000F0B5822945
:105F300019D1C3B2294D5A01AA189169284C800180
:105F40000C40C0218905214391612649083340183E
:105F50007021506128685B011A5C8A43110030226D
:105F60000A431A54F0BD0029FCD1C026C1B21B4C13
:105F70004B01E3189A681A4DB6052A4032439A60DD
:105F8000194A800182185A600A00072724680832DB
:105F90005201115DB9430F000121394311559F6929
:105FA00010493D4040182E439E6158617020115D9C
:105FB0008143080010210143115599680B48A2182C
:105FC000084080214903014399609968890B89033E
:105FD0009960402311790B431371C3E768130020C4
:105FE000FFFFFF8FDC0E00209C100020FF3F00F021
:105FF000EFF3108303600123436072B670470368B8
:10600000002B02D162B6BFF36F8F704773B5836DFB
:106010000400002B1BD10600A83635786846FFF730
:10602000E7FF019BEDB2013B02D33578EDB2FAE711
:1060300068460193FFF7E3FF002D01D1002076BDF4
:106040002300A4331868A0342368C01AF7E7684611
:10605000FFF7CEFF22000025019BF432013B02D363
:106060001578EDB2FAE768460193FFF7C8FF002DF7
:10607000E4D02300F0331868EC34E5E710B5436D45
:106080004468DBB25A01A2189168094808330840F5
:10609000802149030143916091685B01890B890369
:1060A00091602268D318402219790A431A7110BDF1
:1060B000FF3F00F0F7B5436D4268DBB21900040002
:1060C0000831106849014118C979C90711D55B0128
:1060D000D21893689B049B0C0CD12000FFF7CEFFD5
:1060E00063681A68636DDBB208335B01D3187F22E3
:1060F000DA71F7BDE16D002923D12100A4310B60D5
:1061000023000125AC33E56568465360FFF770FF57
:10611000260020002100019BA836013BF430F53118
:106120005A1C33D0357002785F1ED2B20A700A78DA
:10613000002A04D120000193FFF7A0FFE8E73B000D
:10614000EEE72100F0310B600023E36523006033AC
:1061500053606846FFF74CFF012526002000210010
:10616000019BF436013BA830F5315A1C0ED0357036
:1061700002785F1ED2B20A700A78002A04D1200089
:106180000193FFF77BFFE8E73B00EEE768460193EA
:10619000FFF735FFA4E737B56B46DC1D00230D0084
:1061A000237001F057F9210001F0E3F82B6818186B
:1061B000286020783EBD00000078002810D0012122
:1061C000084B1B681A898A431A810822198B0A43D3
:1061D0001A830422198B0A431A830022024B1A6085
:1061E0007047C046681300206013002010B50F4AA6
:1061F00093699B0B9B03936113680222FF331A720E
:106200009879823A02439A711A7A9207FCD57F24D0
:10621000074A2140937A0800A343190080230143D1
:106220009172917A5B420B43937210BD6813002008
:106230000050004110B50C0001F00CF9210001F0F4
:10624000CBF8002804D1034A93699B0B9B0393610D
:1062500010BDC04668130020F8B50D00832A19D17F
:10626000CBB23B4C5A01A21891693A48AD010840A3
:10627000C021890501439161374920686D1870215B
:10628000083355615B011A5C8A43110040220A43BE
:106290001A54F8BD022A55D1304A8B00985800286C
:1062A00002D003685B699847F82001F037FA0400D0
:1062B000274E2B4B4660036040220021083004F03B
:1062C00081FB22000023A032A3646565E36423659B
:1062D000A365E3655360D3641372136013654C3296
:1062E00013725372FF222B001340590171188868F2
:1062F000184F08330740C020800538438860306855
:1063000007265B01195CAD00B1430E000321314348
:1063100019542300616D60681140490141186033D0
:106320004B60616D63680A401B6852019B18012233
:10633000FF33997A20000A439A72FFF79FFE074BBA
:106340005C51A6E711002800FFF7F0FDA1E7C04669
:1063500068130020FFFFFF8FDC0E0020B40E00202A
:1063600068DE000070B505000124064BA200D2587B
:10637000002A06D0210028000134FFF76DFF0A2C07
:10638000F3D170BD880E00200B4BCAB20B488901B7
:10639000C9185301C318596199690832890B8903D7
:1063A0009961036852019A180223D3715179823B93
:1063B0000B4353717047C046DC0E00206813002069
:1063C000084B8A00D05810B5002803D003689B689A
:1063D000984710BDC9B2044B490159188868800418
:1063E000800CF6E7B40E00206813002010B50C00F6
:1063F000FFF7E6FF00280CD0064BE4B21B68083418
:1064000064011C19802362795B4213436371022388
:10641000E37110BD68130020F0B51C002A4B85B055
:106420001B6807000D000292002B4AD0274B8A0000
:10643000D058002808D0036822005B68029998476A
:106440000400200005B0F0BD3800FFF7B9FF84421A
:1064500004D929003800FFF7B3FF04000121EBB293
:106460001B4E03935B010193F21893689B0B9B03F4
:106470009360019A336802989B18FF335A7A0A4353
:106480005A72144BA901C918220004F07FFA002C9B
:10649000D7D029003800FFF793FF0028D1D1402141
:1064A000039B326808335B01D318187901431971D3
:1064B0000121D971019BD318FF339A7A0A439A724A
:1064C000BFE701246442BCE760130020B40E002043
:1064D000681300209C10002013B56B46DC1D2200C1
:1064E0000123FFF799FF012801D1207816BD012073
:1064F0004042FBE770B5CBB2124A13485C018901F8
:106500008918021951609168104D08330D4080219F
:1065100049032943402591609168890B8903916063
:1065200001685A018A1816793543157195796D06F7
:10653000FCD55B01C918CB79DB07FCD50019806855
:10654000C0B270BD9C10002068130020FF3F00F017
:1065500070B50D0000211400FFF7CCFFA04200D958
:10656000200000230349A34203D0CA5CEA5401334C
:10657000F9E770BD9C100020F0B51E003A4B85B0C5
:106580001B680F000192002B35D08023DB019E4257
:1065900031D80025354B8A01D3180293002E2CD018
:1065A000334B1B680393FF233B401C0000930834CC
:1065B000039B64011C19A379DB0921D02D4B2E49C3
:1065C000186801F0EFFB2D4B1721584301F0EAFB4F
:1065D0002B4BE279920713D4DA5D002A01D10138FE
:1065E000F7D20122DA55009B5A01214B9B189A6978
:1065F000920B92039A6101256D42280005B0F0BD0F
:1066000000221F4B3400DA553F2E09D9009B40244D
:106610005A01174B9B188022996912060A439A6106
:1066200022000199029804F0B1F9009BA1045A01DB
:106630000F4B890C9B18029A2D195A619A69361BC7
:10664000920B92030A439A61009B039A08335B0101
:10665000D3180222DA715979823A0A435A71019B9E
:106660001B1901939AE7C04660130020DC0E00203E
:1066700068130020D400002040420F007011010078
:10668000D10E002070B50D001C000D4BAE01F618A8
:1066900011003000220004F079F9EDB209496D01D2
:1066A0004D196E61AB69084A20001340AB61AB69BC
:1066B000A2049B0B920C9B031343AB6170BDC046BD
:1066C000DC0E002068130020FF3F00F0F7B5104BF0
:1066D00001901B780F001500002B0CD10D4B1600FC
:1066E0001C78002C09D00C4E0C48348820186419F2
:1066F00004F04CF934802800FEBD002EFBD03A197E
:10670000330000210198FFF7BDFF2418361AF4E783
:106710005C1200205D1300205E1300205D1200203B
:10672000F8B50F0016000024012A26D9100004F045
:1067300007F90500380004F085FE0323022201302A
:10674000400028706B7096420DD9397800290AD024
:10675000531CDBB20137A9549E4203D00232EC54E1
:10676000D2B2F0E7320029000548FFF7AFFF441E20
:10677000A041C4B2280004F0EDF82000F8BDC046E6
:10678000B00E0020F0B50024012685B0184B0F0094
:1067900069461E7005000094FFF7FDFC154B01A92A
:1067A0000B806A3BFF3BCB715A330B72009B8C71A1
:1067B00009334B800E4B4E7108711C703A00092F43
:1067C0000FD00D4F09223E700C4E280000943480EB
:1067D000FFF77CFF69462800FFF7DDFC3288084997
:1067E0003C702800FFF772FF012005B0F0BDC046E5
:1067F0005C120020090200005D1300205E130020DF
:106800005D12002070B5CE7892B005000C00022E0B
:106810000BD18B79C9792C4809021943FFF7B2FFD4
:10682000411E8841C0B212B070BD00F013FE2100BD
:1068300000F0B3FD002803D0C117081AC00FF2E71B
:10684000012E0ED1E279A37912021A431F49112AAF
:1068500013D8D2B2002A10D02800FFF737FF01204A
:10686000E1E7032EDFD1A378002B08D1E279A379E9
:1068700012021A431649032AEBD90A78ECE7022BD5
:1068800008D1E279A379120212491A432800FFF7CE
:1068900047FFC8E7012B05D1E279A37912021A4319
:1068A0000D49F3E7032BBED14122010001A804F0FA
:1068B00089F800F0CFFD01A900F07FFDE279A3790E
:1068C00012021A4301A9E1E7B00E0020A8DE000081
:1068D00098DE000084DE00009CDE0000CBB204499C
:1068E0005B01C9188B699B0B9B038B617047C0468A
:1068F0006813002037B5050048780C000B2810D825
:1069000001F046FA061B0F2B0F404561494C5A5DBA
:10691000097801AA002906D1022311802800FFF777
:10692000B1FE01203EBD00231380284B1B78012BB4
:1069300000D1137002230021F0E78A780023012A96
:1069400003D101AA1380224BF0E7204A1370214A99
:1069500093699B0B9B039361E3E78C78012C06D131
:1069600000211B4B01AA1C7011702300D6E70120E7
:10697000002CD7D1154B174A187093699B0B9B03BA
:106980009361CFE789782800FFF730FCC9E728003A
:10699000FFF738FFC6E701230F4ACCE70B7800204A
:1069A000DB06BFD12800FFF7DDFCA2780A4B0B48BD
:1069B0001A60FFF791FACAE70123094ABBE78A7810
:1069C000074B1A60C3E70020ACE7C046D00E00209A
:1069D000D80E002068130020601300204C0E002009
:1069E000641300203A4BF7B51E780500002E5FD1E6
:1069F000384C23689A8B12070DD5082231009A83F0
:106A00003000FFF793FA10222368FF33997A0A4384
:106A10009A72314B1E6023689A8B520701D504226B
:106A20009A83FF331A7A920603D52022597A0A43B1
:106A30005A721A7AD20623D569460800274AC0CA74
:106A4000C0C0A268920B9203A26040225879024310
:106A50005A7160230A7828001A422AD1FFF74AFFA8
:106A60002368FF33002827D08022997952420A43B5
:106A70009A711A7A520603D54022597A0A435A72F9
:106A80007F2601252368FF331E722F0023680837F5
:106A90007F01DB19DB79002B07D0114BAA00D058FE
:106AA00000280DD003681B6898470135082DECD1EC
:106AB000F7BDFFF7BFFBD3E720210A4A9171D8E762
:106AC00029000948FFF7D8F92368DF19FE71ECE7C0
:106AD0005D13002068130020601300209C1000202C
:106AE000B40E0020FF5000414C0E002010B50248AB
:106AF000FFF778FF10BDC046B00E002080235B007A
:106B0000038000234360073303727047830001480A
:106B1000C0187047880E0020836C402B09D03F229C
:106B2000036CC154036C013313400364836C013361
:106B300083647047F7B505006846FFF759FA0026E9
:106B40004022019B013B02D32E6D961BFAE768465B
:106B50000193FFF754FAAB6D6846002B4FD1FFF756
:106B600047FA2900019BA831013B5A1C0CD00C7834
:106B70005A1EE4B2002C05D168460193FFF73FFA94
:106B80002000FEBD1300F0E7684601930024FFF7E4
:106B900036FA2A002900A0321368A431B4420ED07C
:106BA000086898420BD92800591CEB181160603313
:106BB00019780830C9B2FFF7AFFF0134E9E7096877
:106BC0009942DDD1002313600133AB656846FFF7BE
:106BD0000FFA2F002A000021019BA837013BF53254
:106BE000581CC9D0397010785E1E002805D011706D
:106BF00028000193FFF742FAEBE73300F0E7FFF7D5
:106C0000F7F92900019BF431013B5A1C06D00C789E
:106C10005A1EE4B2002CAFD01300F6E76846019389
:106C20000024FFF7ECF92A002900EC321368F03158
:106C3000B44202D0086898421DD8096899429FD191
:106C4000002368461360AB65FFF7D2F92F002A00D6
:106C50000021019BF437013BF532581C00D18BE732
:106C6000397010785E1E002811D011702800019331
:106C7000FFF704FAEAE72800591CEB181160AC335F
:106C800019780830C9B2FFF747FF0134CBE733006A
:106C9000E3E710B50400FFF74DFF206D10BD10B500
:106CA0000400FFF747FF236D002B03D0E36CE418CB
:106CB000207A10BD01204042FBE7F7B517000E0017
:106CC0000400FFF737FF6846FFF792F93F220025DF
:106CD0009446019B013B5A1C19D0BD4215D2226D2E
:106CE000002A12D00121226D4942002A0AD06046B2
:106CF000E26CA218117AE26C01320240E264226D69
:106D0000013A226571550135E7E7013BE3E7684643
:106D10000193FFF774F92800FEBD0000014B024A01
:106D20001A60704768130020005000412023F7B517
:106D3000474A0500D1690F200B43D3610122454921
:106D40000B7813430B70444B19788143197006215B
:106D50001C782143197041490C7822430A701A7833
:106D600002401A70602219780A431A703C4B3D4A5F
:106D70005A805F78FF09FCD13B4800F04DFC0123AD
:106D80003A4C3B4E2268300011780B43137080223E
:106D90003900520003F016FE22689378DB07FCD41A
:106DA00056621F26334B1B68590B980C9B013140D0
:106DB00030405B0FB14200D105211F2800D10238BD
:106DC000072B00D1043B31408901178D01912A49DD
:106DD00030400F40019939431185118D0700B143AF
:106DE000080038431085118D1803244B7F260B4073
:106DF00003430C2013850823D17881430B430321DF
:106E0000D3702268D3788B4301390B43D370226847
:106E100013783340137004232268167833431370B9
:106E20002268C1241389A4008343154813810359A0
:106E30001B021B0A03518023036013781148194376
:106E4000012311702B700021FEF7B0FEF7BDC04684
:106E500000040040584400413C4400415944004172
:106E6000000C004006400000ED6A0000681300209E
:106E70006C130020246080003FF8FFFFFF8FFFFFAE
:106E800000E100E04C0E00200120704710B50368BF
:106E9000014A1B6A984710BD13040000FC30006AC9
:106EA000704787239B00C018C36880204000C01A29
:106EB00070470300FC331A6A002A03D0DB69C0184C
:106EC000007D704701204042FBE710B504000069D7
:106ED000FEF792FB22000023FC329361D361136220
:106EE00087229200A4186360A360E36010BD87232B
:106EF00010B59B00C218D368002BFCD10069FEF7C7
:106F000092FB10BDF02001403039484248417047A3
:106F1000F0231B011940802306209B0099420AD0D0
:106F20000133FF330130994205D0802302385B00E2
:106F3000994200D0002070470F2001400020012915
:106F400003D00239481E8141481C70478B23F0B59D
:106F5000182685B002919B000400C05C3300082114
:106F60004343324D1700EB18595600F05BFE304B8F
:106F70000821E05C33004343EB18595600F052FE01
:106F80002C4BE25C0393022A09D11133E05CFF2809
:106F900005D008214643AE19715600F043FE8C26F9
:106FA000B600A05DFF2819D0012100F0ABFD18222A
:106FB000A35D21495A43AB56AD18DB0158188D210A
:106FC000890060501D4901225B188E2189006350A1
:106FD00069688A408F21890062501A600122029BF1
:106FE00011002069FEF7FAFC39002000FFF790FF3E
:106FF000390005002000FFF79FFF39000600200040
:10700000FFF780FF33000090290020690122FEF77E
:10701000C3FA0B4B2069E25C039BE15CFEF7D9FAF3
:107020002069FEF7F6FA05B0F0BDC046E0DA0000D0
:107030002D0200002F0200001844004114440041BA
:107040002E020000802210B504005200002103F03F
:10705000B9FC23000022FC335A6020009A60DA60F9
:1070600010BD0000F0B585B01D000AAB1B78040010
:1070700000930BAB1B78160001930CAB1B780F0031
:1070800002930DAB1B78039300234360FA239B000C
:107090008360124B083303601430FFF7D3FF2000E6
:1070A0002130FF30FFF7CEFF8B236A469B0027611C
:1070B000E6540B4B1278E5540A4B2000E2546A4622
:1070C000094B1279E2546A46127A0133E2546A4655
:1070D000127B1033E25405B0F0BDC046BCDE0000A8
:1070E0002D0200002E0200002F020000F7B51D0047
:1070F00008AB1B780400009309AB1B7816000193C2
:1071000000234360FA239B008360114B0F00083378
:1071100003601430FFF796FF20002130FF30FFF7A7
:1071200091FF8B236A469B002761E654094B127836
:10713000E554094B2000E2546A46084B1279E254A8
:107140008C22313BFF3B9200A3541032A354FEBD6E
:10715000BCDE00002D0200002E0200002F02000005
:10716000F7B5EFF3108300930123019372B68026E5
:107170000200FF25019BFC327600013B5C1C0FD016
:10718000D4685F1EB44209D0546801555468013474
:107190002C405460D4680134D460EEE73B00EDE746
:1071A00068460193FEF72BFFF7BD13B5EFF310838D
:1071B00000930123019372B6019B5A1E0192002B8A
:1071C00015D00300FC33DA68002A0DD09A68845C7D
:1071D0009A680132D2B29A60DA68013ADA60684697
:1071E000FEF70DFF200016BD01246442F7E70124DD
:1071F0006846FEF704FF6442F4E710B50400006936
:10720000FEF72FFA002805D02069FEF73AFA206928
:10721000FEF72CFA2069FEF714FA00281BD020692B
:10722000FEF72FFA010020001430FFF799FF8C239E
:107230009B00E35CFF2B0ED02300FC331A6A8023F3
:107240005B009B1A092B06DC8D238F229B0092008A
:10725000E358A2581A602069FEF70EFA00280ED0F3
:1072600087239B00E318DB68002B14D0200021301B
:10727000FF30FFF79AFFC1B22069FEF706FA2069D6
:10728000FEF7E4F9002805D02069FEF7E3F920694C
:10729000FEF7D3F910BD2069FEF705FAEFE700000D
:1072A000F8B5040000690D00FEF7E6F987239B009E
:1072B000E618002802D0F368002B34D00127802282
:1072C000F3685200934223D1EFF310833B4210D175
:1072D000174B5B68DB05DB0DF1D0103B5BB2002B7D
:1072E00010DAF13A1340083B9B08124A9B009B18A6
:1072F0001B682069FEF7C0F90028E0D02000FFF7E6
:107300007CFFDCE79B08C0330B4A9B009B58F0E7EF
:1073100020002130FF302900FFF722FF2069FEF70F
:10732000BEF90120F8BD29002069FEF7AEF9F8E7A3
:1073300000ED00E01CED00E000E100E010B504000D
:107340001430FFF732FF8C239B00E35CFF2B0ED041
:107350002300FC331A6A80235B009B1A0A2B06DD8C
:107360008E238F229B009200E358A2581A6010BD12
:10737000FEE770B50E0000254468002C0BD0236892
:1073800031005B6820009847002802DB2D18E46874
:10739000F3E701256D42280070BD70B50D0044680B
:1073A000002C08D0236829009B68200098470028FB
:1073B00002D1E468F4E7200070BD70B50D004468A8
:1073C000002C07D0236829002000DB689847E46878
:1073D0002D18F5E72C7070BD70B50D004468002CB9
:1073E00008D0236829001B6820009847002802D194
:1073F000E468F4E7200070BDF8B542788B790D00A1
:10740000017A9B18040000208B4222DC63688342CF
:1074100019D16560002623786A71EA792B719B186F
:107420002370AB79B34213D9AB68B7006078DF192A
:10743000FFF76CFB3B68013603606378F6B20133FB
:107440006370EEE70B00D9680029FBD1DD60E1E74E
:107450000120F8BD70B50126054D064C2B6833425E
:1074600003D12000FFF74AFB2E60200070BDC0460C
:107470006C14002070140020F7B506000D000C00FD
:107480008B180193019B671B9C4207D033682178BE
:107490001B683000984701340028F3D13800FEBD46
:1074A00070B5040008000D0003F0CCFF2368020053
:1074B00029005B682000984770BD10B50B1E02D0F4
:1074C000FFF7EEFF0300180010BD10B5FFF7F5FF42
:1074D00010BD10B5FFF7F1FF10BD000010B5024957
:1074E000FFF7DEFF10BDC046F0DE000070B50400FF
:1074F000FFF7E3FF05002000FFF7F0FF401970BD24
:1075000070B50400FFF7D9FF05002000FFF7E6FF84
:10751000401970BD10B5040000F084F8E0602368E5
:1075200020005B699847002808DA00F07BF8E368E0
:10753000C01AA3689842F2D30120404210BD816076
:107540007047F7B5070015001400D3180191009398
:10755000009B661B9C420BD03800FFF7DBFF002826
:1075600006DB019BC0B2984202D020700134EFE7E5
:107570003000FEBD30B5040087B00D00064901A8FB
:1075800003F040FF22002B0001A90A9803F03AFF04
:107590000A9807B030BDC046F3DE0000FEE70000E9
:1075A000034B10B51B68002B00D0984710BDC04698
:1075B0007C14002070B50F490F4CA14204D100F09B
:1075C000B5F800F08BF8FEE70C4D00238D42F6D0A5
:1075D000CA18E818A24205D3094B8242EFD00949E4
:1075E000002204E0006804331060F1E704C38B421A
:1075F000FCD3E4E700000020D402002004E30000F4
:10760000D40200209414002010B500F064F8002883
:1076100001D100F055F810BD014B18607047C0460D
:107620007C140020014B18687047C046801400206D
:10763000F7B51348012284461249134C8E686368DB
:1076400005689B0E1340019288686268019F920E44
:107650003A4067463F6893420ED1BD420CD1864204
:107660000AD35B19FA254868AD00861B07486B43AF
:107670007043000DC018FEBD3D0013000600E3E797
:107680008014002010E000E000ED00E055550000FF
:1076900070B5041E10D0FFF7CBFF050000F01AF8FC
:1076A000FFF7C6FF054B401B9842F7D9FA23013C70
:1076B0009B00ED18002CF3D170BDC046E70300001D
:1076C00010B5034A13680133136000F01DFB10BDB1
:1076D00080140020704700207047000010B500F0B3
:1076E000EFF803F009F9FDF7CAFE0120FFF7D0FF1C
:1076F000084C2000FFF71AFB2000FEF75DFDFBF7AA
:10770000ABFEFBF73FFE044B002BFAD000E000BFBE
:10771000F7E7C046B00E00200000000010B503F0EF
:107720000FF910BD10B503F015F910BD1E22F0B50C
:10773000504851494368514D93431A000223134363
:10774000436008238A691343FE228B612B68D203AE
:107750009B0213404A4A13434A4A9361130004228E
:10776000DC681442FCD00124474A14701678264283
:1077700003D0567876B2002EF8DB0124946054785A
:1077800064B2002CFBDB414C5460547864B2002C92
:10779000FBDB8224E4015480547864B2002CFBDBD0
:1077A00002249C840E34DE682642FCD0384CDC6215
:1077B0001024DE682642FCD02C68A40E3F2C00D199
:1077C000203C9E6A334FA4023E4034439C629C6A34
:1077D000314EA40AA40234439C62304CDC62002483
:1077E0009C841034DE682642FCD02D4C9C841024EE
:1077F000DE682642FCD002249E8C34439C841024F4
:10780000DE682642FCD000249460547864B2002CD8
:10781000FBDB244C5460547864B2002CFBDB1C6A04
:10782000214E344080261C621C6AB4431C62032330
:1078300093601E4B536053785BB2002BFBDB00233D
:10784000FF240B721A4A4B728B72CB72194B1A605F
:10785000194A2B6811689A065B01C90E2340520F22
:1078600012020B431343154A1385802342681343C6
:107870004360F0BD004000410004004024608000EF
:107880000606000000080040000C00400104010052
:10789000B905FF7DFF03FFFFFF01000080BB0A1C4D
:1078A0002405000000070300FFFCFFFF03060100A2
:1078B000006CDC02D4000020206080000040004208
:1078C000FA21314B10B51868890000F06BFA2F4B84
:1078D0000138984256D82E492E4A4860C020136A73
:1078E00000061B021B0A03431362002407238C605B
:1078F0000B608021136A09061B021B0A0B431362EB
:10790000FC22254B196A0A431A62FC22196A920169
:107910000A431A62A022196AD2020A431A62E0B22A
:107920000021013400F0EEF81F2CF8D11B4B1C0095
:107930005A7852B2002AFBDB194A5A80194B1A00B6
:10794000597EC9090129FBD0E421C90099803F2152
:10795000D970537EDB09012BFBD0C02300205B01D3
:107960001361907000F02EF863785BB2002BFBDBA4
:107970000D4B0E4A6380D379DB09012BFBD04123E9
:10798000537010BDFEE7C046D4000020FFFFFF008B
:1079900010E000E000ED00E000040040000C0040BA
:1079A0001E4000000040004221400000004800420C
:1079B000914202D002D98A1AD0407047521A9040A0
:1079C000FBE70000164A00B51300517EC9090129E2
:1079D000FBD00138042816D81969124A0A400F2131
:1079E0001A615A788A4300F0D3F90308060B0300A2
:1079F000110001220A435A7000BD11000322F9E769
:107A000011000222F6E7F02311691B050B430F2139
:107A1000136153788B43190002230B435370EBE738
:107A200000400042FFFFFFF010B504000D2801D810
:107A30000E34E4B20121200000F0F4F818231021E4
:107A400063432B4CE4186156002901D014290DD151
:107A5000284B1800DA79D209012AFBD002241A78BF
:107A6000A2431A70C379DB09012BFBD02248030023
:107A7000427ED209012AFBD01F2402692140A24381
:107A80000A4302615A7ED209012AFBD002221978E8
:107A90000A431A705A7ED209012AFBD00222197BAE
:107AA0000A431A731A7ED207FCD501221A765A7E2F
:107AB000D209012AFBD00222197B0A431A731A7ECB
:107AC000D207FCD5588B80B25A7ED209012AFBD04E
:107AD00002211A788A431A705A7ED209012AFBD0F1
