:020000040000FA
:10000000FC7F002001060000F1050000F50500005E
:1000100000000000000000000000000000000000E0
:10002000000000000000000000000000F9050000D2
:100030000000000000000000FD0500004107000076
:1000400010B5064C2378002B07D1054B002B02D0AE
:10005000044800E000BF0123237010BD5C000020B5
:1000600000000000A018000008B5084B002B03D0CA
:100070000748084900E000BF07480368002B03D089
:10008000064B002B00D0984708BDC046000000007A
:10009000A0180000600000205800002000000000B0
:1000A000154A164B1178002909D115491878097895
:1000B0004118C9B21970802012498002C8611178B4
:1000C0000131C9B211701978F02902D819780929BB
:1000D00009D80B4908784042C0B2087018780978EE
:1000E0004118C9B2197012781B789A4203D1802244
:1000F000044B9202DA617047780000200100002072
:10010000000000200044004110B5C3699C07FCD4E6
:1001100003680224A3430360C46901231C42FBD18A
:100120000468234303600368DC07FCD4C46901232B
:100130001C42FBD1C469DC401C42F7D1084B1A4376
:100140000260C3695A07FCD4C0239B0243608181CB
:10015000C3699C07FCD4036802221343036010BDEB
:1001600004000040037EDA07FCD5018570470000DB
:10017000027E01235107FBD5428B1A4207D1428BE5
:10018000DA401A4203D1428B92081A4202D0034B42
:1001900001221A70008DC0B27047C046790000205D
:1001A00070B50368041C988B1A1C0821FF320842A2
:1001B00026D0802099839872112353704021144BCC
:1001C000917150715E68134DC0202E40800506432A
:1001D0005E605E693540284358610F4818600F48DB
:1001E00018615D680E4828408025AD02284358609C
:1001F0005868800B8003586000235171237105E01B
:10020000137ADA0602D5201C00F0D4FA207970BDEA
:1002100098010020FFFFFF8F9800002018010020A8
:10022000FF3F00F0002303714371044B01608360C2
:100230000B78022213430B707047C046A1010000E7
:1002400038B5364B2021DA6901200A43DA61344B94
:1002500006241A7802431A70324B0F221978914300
:1002600019701978214319702F490C7820430870B0
:1002700019780A401A701A7860210A431A702B4BB9
:100280002B4A5A805A7852B2002AFBDB294B0121B3
:100290001A780A431A709A78D107FCD42648026863
:1002A000510B1F221140914200D1052111408C01B8
:1002B0001D8D22492940214319850468A10C0A405B
:1002C0001F2A00D11D221C8D1F210A408C4322436E
:1002D0001A8502680721D20D0A408A4200D1032202
:1002E0000A40188D1103164A02400A431A851978EC
:1002F0007F220A401A701A78042112480A431A70A1
:1003000058621A890C218A431A811A8901218A4369
:100310001A810021802201F040F938BD000400401C
:10032000584400413C44004159440041000C004005
:100330000640000000500041246080003FF8FFFFAD
:10034000FF8FFFFF98010020F7B5141C1F4A5F01C3
:1003500001971D1CD319061C5869271C4000400F2B
:1003600003301033C74006D00F1C80225968120694
:100370000A435A6009E02F1C7B1E9F41144BBF01AA
:10038000FF18381C221C01F0FFF801990F480835AE
:1003900042181761131C5269A104920B890C920335
:1003A0000A435A6159690B4A0A405A616B01F318B2
:1003B0000222DA715979802252420A435A716B0142
:1003C000F318DB799A07FAD5201CFEBD98010020AE
:1003D00018010020FF3F00F0F8B51A4E051C3378D5
:1003E000141C002B12D1184B184A1A645A6C920B29
:1003F00092035A64586C164A02405A64A2235B0066
:10040000EA5C40200243EA54012333704827FF3757
:10041000EA5D0123134012D00B4B5A6C9204920CEC
:10042000A24202D25C6CA404A40C081C221C074942
:1004300001F0AAF80123EB550023337000E01C1CE7
:10044000201CF8BD7A00002098010020D800002070
:10045000FF3F00F0FF3083792022002900D11022D5
:100460001343837170470000084BFF305A69920BA9
:1004700092035A6102230372827980235B42134301
:100480008371037A9A07FCD57047C0469801002013
:1004900080235B421943C9B28172704770B5A023B3
:1004A00003225B00C254134B134A5C6CC0211440FE
:1004B00089050C4346255C64FF35402444550F4DA7
:1004C00030261D6490256D0046555D6B154029430F
:1004D000922559636D0080214155094D1D63B0255A
:1004E0006D0044555C6F22405A67B2235B00C154D3
:1004F00070BDC04698010020FFFFFF8FD80000208C
:1005000058010020024B5B785BB2002BFADB70478E
:10051000000C0040024BDB68DA06FBD57047C04692
:1005200000080040F8B5264B1E215A6802268A436F
:10053000244C32435A60A660FFF7E4FF224B234D60
:100540006360FFF7DFFFAE84FFF7E4FF204B1B681B
:100550009B0E3F2B00D11F231E4A9B0213431E4AB2
:100560000026EA62AB62AE84FFF7D4FF1B4B022782
:10057000AB84FFF7CFFFAB8C3B43AB84FFF7CAFFE5
:1005800063883F2293431F43678062888023DB0197
:1005900013436380A660FFF7B5FF114B6360FFF75D
:1005A000B1FF104B104AC0215A60104A0906106A68
:1005B0000002000A0143116207229E601A60F8BD22
:1005C00000400041000C004006000100000800400F
:1005D00024608000FF01000080BB0A1C240500008D
:1005E0000007030010E000E0E703000000ED00E07A
:1005F0000EBEFEE70DBEFEE705BEFEE702BEFEE74D
:100600000E4A0F4838B5824204D10E4A0E4B93422F
:100610000ED10AE00D4C9442F7D00023D118884245
:10062000F3D9E55804330D60F8E700F011F804E061
:100630009342FAD2002102C3FAE7FEE7000000204D
:100640005C000020A80300205C000020A41800002B
:1006500038B5304B1A681C1C013221D02E4A191DA6
:100660001160D9B200291BD12C4A10780122104008
:100670002B4A0AD115682B498D4201D110600FE039
:100680001160294901390029FCD11160226882F3E7
:100690000888FF229343254A93601E4B5B681847E6
:1006A000FFF740FF62B600F09DFD00F04FF8204BD1
:1006B000802292029A601F4B1F4A041C5A601B4AF8
:1006C000C021106A09060002000A014311620022DB
:1006D0009A6007221A60A368201C9847174B0028CD
:1006E00001D001221A701A78002A05D0002000F0EB
:1006F0008BFA00F003FBFCE71B78002BEBD100F03A
:10070000E5FD0028E7D0012000F07EFA00F0F6FABF
:10071000FCE7C0460020000018020020380400401A
:10072000FC7F00203581730748E8010000ED00E000
:100730000044004110E000E0E70300007B000020DF
:1007400008B5FFF7ADFC00F0C3FA08BD10B5054BC6
:10075000054C2360FFF774FD201C2168FFF762FD44
:10076000201C10BD005000411C02002070B5051C6B
:10077000C0B0081C161C0C1C00F017FF40006A4695
:10078000032302305370107076080123E218013AF7
:1007900011785A00002906D1281C69460023FFF76A
:1007A000D3FD40B070BDB342F6DA684681520133E2
:1007B000ECE70000F7B5BA4A04681378B949271C7A
:1007C000FF37051C102038720B705378B648B74EAF
:1007D000037093783380D178338809020B433380D8
:1007E0001179B34B19805179188809020843188090
:1007F0009079B0490880D2790888120202430A80B1
:1008000040227A71A84F3A78A64F120238780F1C0E
:100810000243A9488446181C624500D1C2E020DC8E
:10082000802149008A4200D16EE109DC812A00D191
:1008300092E0822A00D195E0802A00D064E18BE02A
:1008400081235B009A4200D1CFE000DA58E1C02357
:100850009B009A4200D157E1984B9A4200D14FE158
:1008600052E190231B019A4269D015DCD023DB00B2
:100870009A4222D088231B019A4269D0A023DB0030
:100880009A4200D040E1201CFFF7EEFD3188286835
:1008900089B2FFF7FDFD3BE1894B9A4200D12FE180
:1008A00000DC31E1874B9A4200D11DE1864B9A4230
:1008B00000D029E133886B7122E133881B0A012BB8
:1008C00008D10B8812222868934201D80A8892B274
:1008D0007E4911E133881B0A022B08D10B88432281
:1008E0002868934201D80A8892B2794904E1338892
:1008F0001B0A032B00D007E13388DBB2012B17D092
:10090000002B07D0022B00D0FEE00A882868D2B264
:10091000704911E0042201A86F4900F035FE3B88C0
:1009200004222868934201D83A8892B201A9E3E0F0
:100930000A8828686949D2B2FFF718FFE8E03388CF
:10094000201C2B71FFF790FD201CFFF7A7FDDFE0B7
:10095000291C01C90122CFE0614900230B802868CE
:100960000222CAE05E4900220A8018885022104004
:100970005C4A10701E880F203040188018880328A9
:1009800000D9C1E012781B8808335B01E418A37911
:10099000002A01D09B0600E0DB06DB0F0B802868F5
:1009A0000222A9E019887F2291434E4AC9B21170F0
:1009B00018880F21014019803188002900D0A3E058
:1009C0001988002900D19FE01988032900D99BE0EC
:1009D00012781B8808335B01E318002A02D020221A
:1009E0005A718DE0102159718AE002887F239A4361
:1009F0003C4BD2B21A7001880F220A400280328822
:100A0000002A00D080E00288002A00D17CE0028821
:100A1000032A00D978E01B78002B1FD00388083305
:100A20005B01E3189B799A066AD503882022083374
:100A30005B01E3181A71038808335B01E318DB7963
:100A40005F065DD50388402208335B01E318DA7145
:100A50000388022208335B01E3181EE00388083391
:100A60005B01E3189B79D9064AD503881022083325
:100A70005B01E3181A71038808335B01E318DB7923
:100A80009A063DD50388202208335B01E318DA710A
:100A90000388012208335B01E3181A7130E0C04675
:100AA000980000207D0000208200002084000020AB
:100AB00086000020800000200203000001030000E7
:100AC00021200000A121000021220000F4150000D7
:100AD00004000020E0150000D0150000D41500002F
:100AE0007E0000207C0000200B88082228689342AA
:100AF00001D80A8892B207490023FFF725FC07E0D6
:100B0000201CFFF7B1FC03E0201C0121FFF7A2FC31
:100B1000F7BDC0464800002007B5054B01220190F3
:100B200001A91868131CFFF70FFC01200EBDC04679
:100B30001C02002013B5054B6C4607341868211CB5
:100B40000122FFF749FC207816BDC0461C02002098
:100B500010B5074C201CFFF723FB031C0020834229
:100B600005D022684823FF33D05C0123184010BD14
:100B70001C02002010B5054A0C1C031C191C10682F
:100B80000123221CFFF7E0FB201C10BD1C020020EB
:100B900070B5084C061C201C0D1CFFF701FB002340
:100BA000984205D02068311C2A1CFFF715FC031C55
:100BB000181C70BD1C020020F8B50C4C051C201C34
:100BC0000E1CFFF7EDFA0023271C341C98420AD0B4
:100BD000002C07D0291C221C3868FFF7FDFB241AC3
:100BE0002D18F5E7331C181CF8BDC0461C02002068
:100BF00008B5031C081C111C9847024B64221A807C
:100C000008BDC0468C000020012805D1054B064ACE
:100C10001A60064B187004E0002802D1044A014B08
:100C20001A6070478C0200202816000094000020F3
:100C30007416000030B50A1C1C4985B00978031CE5
:100C400000292AD0042A01D1006804E0022A01D137
:100C5000008800E00078520004A98B180B3B9C1A16
:100C6000A3420BD00F210140092902D83025294386
:100C700000E0373119700009013BF1E701A9302389
:100C80000B7078234B700A208B1898700D20D87049
:100C9000074B04321B68D86803E005490968C86837
:100CA000191CFFF7A5FF05B030BDC0468800002025
:100CB0008C02002072B6EFF30883044A13600368C5
:100CC00083F30888436818477047C04690020020A5
:100CD000084B1A88002A03D01A88013A92B21A8067
:100CE000054B1A88002A03D01A88013A92B21A805A
:100CF0007047C0468C0000208A000020F0B591B0FB
:100D000008A9CC4A0B1C31CA31C351CA51C360CAAD
:100D100060C3C94BC9489A687A255203520F9200A2
:100D20005258C74902609C68A4B262430C60C5492E
:100D300000240A60C44A1460C44C2570C44CC54DDC
:100D40002368281C1B6940219847002802D0C24B09
:100D500064221A80C14B00221860C14B1D60C14B38
:100D6000C04DBE4F1A602A683B689A42E6D2BC4B1F
:100D70001B681A78FF2A00D114E2232A00D0EBE185
:100D8000B94E3378002B06D0B14BB8491B6802220C
:100D9000D868FFF72DFFAD4B1B78532B3CD13B6838
:100DA0002A6893421ED9AE4801322A609A1AB04B83
:100DB00001681B6801310160AE4E9A4201D2326077
:100DC00000E03360A04832680068049000F0DCFB6B
:100DD000336829685A182A60A14A1668F118116008
:100DE000A54A13702B68013B2B609D4B1A68013A92
:100DF0001A60A14B9E4A1B7811688B420AD2226866
:100E00009148C91A006892699047002802D0924B15
:100E100064221A80C0468DE1522B0AD18A48944A36
:100E20002368006811685B69039098476422934BBC
:100E30000DE04F2B05D1844B8D4A1B6812681A7048
:100E400078E1482B05D1804B894A1B6812681A80CB
:100E500070E1572B05D17C4B854A1B6812681A60DC
:100E600068E16F2B03D1784B0121186807E0682BEC
:100E700008D1754B7E481B6802211B880360FFF771
:100E8000D9FE57E1772B06D16F4B79481B680421B7
:100E90001B680360F3E7472B13D1754B1868FFF706
:100EA00009FF774B1B6883F3088862B6754B1B7884
:100EB000002B00D13EE1664B06201B681B6898475B
:100EC00038E1542B04D101233370614B1B6864E07B
:100ED0004E2B0CD13378002B06D15D4B63491B6838
:100EE0000222D868FFF784FE0023337022E1562BDC
:100EF00057D123686449D8680122FFF779FE236837
:100F00006249D8680322FFF773FE614D2368291CEC
:100F1000D8680122FFF76CFE23685E49D8680D226D
:100F2000FFF766FE2368291CD8680122FFF760FEE0
:100F30004B4F4C4D5849002339602B603A1C281CFC
:100F400013685E1C16601B780593002B03D00368A2
:100F500001330360F4E73E4E2A683368D868FFF730
:100F600047FE33684A49D8680122FFF741FE0599D8
:100F700029604A4939603A4A1368581C10601B7846
:100F8000002B04D0374B1A6801321A60F3E733683C
:100F90002A68D868FFF72CFE3368D86833490222E4
:100FA000C6E0334A582B17D1244E264D36681368B5
:100FB0002A68B10093420AD21F4D5808E8613848A8
:100FC00028801D4D287DC607FBD55B18F2E7204B16
:100FD00034491B68D868AAE0592B79D112681A4B9A
:100FE0003149002A02D11B680B606CE0124D086881
:100FF00019686B68104E8025AB4392087360002A15
:1010000061D02A4B0C4D2B800B4E337DDD07FBD579
:1010100000230A4D2D680195AD08AB4203D3244D42
:10102000054E358046E09342F9D09D004659013384
:101030004E51EEE708160000004000414402002037
:101040003C020020380200208802002034020020E8
:101050008C020020480200208A0000202C02002080
:1010600030020020400200208800002068160000A6
:101070009402002098020020280200208C0000200A
:101080009002002094000020441600006D1600001D
:101090004616000090160000481600005416000086
:1010A00002A5FFFF5D1600009000002044A5FFFF91
:1010B00004A5FFFF3F4E357DEE07FBD59D00491986
:1010C0004019D21A9BE73C4B3C491B68D8682EE07C
:1010D0005A2B2FD13A4B17681D680026EF19BD42D5
:1010E00006D02878311C00F013F90135061CF6E70C
:1010F000314B34491B680122D868FFF779FD07237B
:101100000F223240111C36093031092A00DD073127
:101110001820C0186A468154013BF1D2236806A901
:10112000D8680822FFF764FD23682749D86803229E
:10113000FFF75EFD254B7A221A70254B00221A60BC
:10114000244B1B7893422DD01B4B23491B68012253
:10115000D868FFF74DFD25E0111C3039C8B21C4B93
:10116000092804D81D682A01114319601AE0111CCE
:101170004139052903D81E68373A310106E0111CB0
:101180006139052904D81868573A01010A4308E073
:101190002C2A03D10A4A1968116001E00B490A7030
:1011A00000221A600D4B1A6801321A600C4B1A6843
:1011B0000132D5E5004000418C020020611600009C
:1011C0008802002065160000671600003402002027
:1011D00094020020880000206B16000040020020CE
:1011E0003002002010B51C4B01201A780324024362
:1011F0001A701A4B0F2219789143197019782143EC
:10120000197017490C782043087019780A401A7031
:101210001A7830210A431A70124B80211A6A0A4345
:101220001A62114B114A5A805A7852B2002AFBDBDB
:10123000C4220F480F499203FEF766FF0E4A0023AF
:1012400013700E4A13700E4A13700E4A13700E4A32
:1012500013700E4A137010BDD6440041BB440041C8
:10126000D744004100040040000C00401940000039
:10127000001C00422AF600009C02002023030020EC
:101280009D020020A0020020240300202103002052
:1012900008B5C1B20248FEF765FF012008BDC0468F
:1012A000001C0042024B187E4007C00F7047C0462A
:1012B000001C004208B5FFF7F5FF0028FBD00248EC
:1012C000FEF756FF08BDC046001C004208B5FFF7F8
:1012D000E9FF0023984205D0FFF7ECFF031C233BF6
:1012E0005A425341181C08BD70B5041C0D1C461809
:1012F000B44204D02078FFF7CBFF0134F8E7281C74
:1013000070BD10B5041CFFF7D5FF2070012010BD83
:101310000B0A5840034B4000C05A0902484080B2B3
:101320007047C0469E160000F7B50024051C0F1C30
:10133000261CBC4220D0FFF7BDFF114BC0B21B786A
:101340000190002B1AD1311CFFF7E2FF0D4B061C58
:101350001A88002A04D10C4A11782A1C002907D0C7
:1013600001996A1C2970802F02D1198801391980CE
:101370000134A4B2151CDCE7301C00E00120FEBDE6
:10138000210300209E02002022030020F0B53E4EE3
:1013900085B0002203900C1C32703C4B914201D16D
:1013A000012201E03A490C801A707F231C4201D0CF
:1013B00080349C43FFF77EFF3378C0B2002B07D008
:1013C00000253570FFF776FF3378C0B2AB4236D1D7
:1013D000432803D0712853D01528EBD10123009363
:1013E0000120FFF755FF0098FFF752FF0099802575
:1013F000C843C0B2FFF74CFF039B00270293244A67
:101400001388002B1DD1214901930978002918D197
:101410000198FFF73DFF391C0198FFF779FF013D67
:10142000071C002DEBD1000AC0B2FFF731FFF8B264
:10143000FFF72EFFFFF73EFF3378002B0AD0357001
:101440001FE00299013B09781380029B019101334F
:101450000293DDE7C0B2062807D1009B0399013350
:10146000DBB280310093803C0391002CB8D1042082
:10147000FFF70EFFFFF71EFF044B01251C7000E075
:101480000025281C05B0F0BD210300202203002008
:101490009E020020F0B5384C87B0002301902370E5
:1014A000994201D1012301E0344A1180344A642673
:1014B00013704320FFF7ECFE324FFFF7F3FE0028D6
:1014C00003D1002F03D0013FF7E7002F03D1013EE6
:1014D000002EEED14DE00125FFF7ECFE2378002B26
:1014E00038D1C0B20290012805D004283DD1062091
:1014F000FFF7CEFE39E005AE0221301CFFF714FFE6
:1015000001988021FFF710FF23780390002B18D15A
:10151000FFF7D0FE0702FFF7CDFEBFB223783F18DA
:10152000BFB2012B0DD0039B9F4207D13378AB4252
:1015300004D1EB437278DBB29A4204D01820FFF753
:10154000A7FE002303E00620FFF7A2FE029B2278FD
:10155000002A02D0002626700BE0012B05D1019A4B
:101560006B1C8032DDB20192B6E7054A002313708E
:101570000126301C07B0F0BD210300209E02002090
:101580002203002000350C0010B50023934203D045
:10159000CC5CC4540133F9E710BD031C821893429C
:1015A00002D019700133FAE770470023C25C01339F
:1015B000002AFBD1581E7047F8B5C046F8BC08BCDD
:1015C0009E467047F8B5C046F8BC08BC9E467047BA
:1015D0000403090441726475696E6F204C4C43002A
:1015E00041726475696E6F204E4F4E4120574C41D9
:1015F0004E0000001201000202000040412357008B
:1016000000020102000100000800000010000000BC
:1016100020000000400000008000000000010000E9
:10162000000200000004000091120000B51200004A
:10163000A5120000E9120000031300008D13000042
:10164000951400007600200041707220313920325C
:101650003031390031343A33383A343800580A0DD1
:1016600000590A0D005A00230A0D003E00322E30A8
:1016700000000000190B0000350B0000510B0000AA
:10168000750B0000910B0000750B0000B90B0000FA
:101690005B41726475696E6F3A58595A5D0000007B
:1016A0002110422063308440A550C660E770088155
:1016B00029914AA16BB18CC1ADD1CEE1EFF13112CC
:1016C000100273325222B5529442F772D6623993A5
:1016D00018837BB35AA3BDD39CC3FFF3DEE362241C
:1016E000433420040114E664C774A44485546AA5F5
:1016F0004BB528850995EEE5CFF5ACC58DD55336AC
:10170000722611163006D776F6669556B4465BB744
:101710007AA719973887DFF7FEE79DD7BCC7C4487B
:10172000E5588668A7784008611802282338CCC994
:10173000EDD98EE9AFF9488969990AA92BB9F55A0B
:10174000D44AB77A966A711A500A333A122AFDDBE4
:10175000DCCBBFFB9EEB799B588B3BBB1AABA66CDB
:10176000877CE44CC55C222C033C600C411CAEED34
:101770008FFDECCDCDDD2AAD0BBD688D499D977EEB
:10178000B66ED55EF44E133E322E511E700E9FFF84
:10179000BEEFDDDFFCCF1BBF3AAF599F788F88913A
:1017A000A981CAB1EBA10CD12DC14EF16FE180101E
:1017B000A100C230E3200450254046706760B98321
:1017C0009893FBA3DAB33DC31CD37FE35EF3B1026E
:1017D0009012F322D2323542145277625672EAB531
:1017E000CBA5A89589856EF54FE52CD50DC5E234BE
:1017F000C324A01481046674476424540544DBA701
:10180000FAB79987B8975FE77EF71DC73CD7D3260D
:10181000F2369106B01657667676154634564CD990
:101820006DC90EF92FE9C899E9898AB9ABA944585D
:10183000654806782768C018E1088238A3287DCB60
:101840005CDB3FEB1EFBF98BD89BBBAB9ABB754AAD
:10185000545A376A167AF10AD01AB32A923A2EFDF0
:101860000FED6CDD4DCDAABD8BADE89DC98D267CFD
:10187000076C645C454CA23C832CE01CC10C1FEF40
:101880003EFF5DCF7CDF9BAFBABFD98FF89F176E4D
:10189000367E554E745E932EB23ED10EF01E000081
:1018A0000000000001140000090243000201008052
:1018B00032090400000102020000052400100104A6
:1018C0002402000524060001052401000107058308
:1018D000030800FF09040100020A00000007058157
:1018E00002400000070502024000000000C20100A3
:1018F0000000080069000000410000000000000036
:10200000008000205D7700004577000045770000E4
:1020100000000000000000000000000000000000C0
:1020200000000000000000000000000045770000F4
:10203000000000000000000045770000B1770000BC
:1020400045770000457700004577000045770000A0
:10205000457700004577000045770000497700008C
:102060004577000045770000457700006D56000079
:102070005D560000393E00004D56000045770000D7
:102080004577000045770000457700004577000060
:10209000000000004577000045770000457700000C
:1020A0004577000045770000457700004577000040
:1020B0000000000010B5064C2378002B07D1054B1B
:1020C000002B02D0044800E000BF0123237010BDA4
:1020D0000803002000000000D8EF0000044B10B5FA
:1020E000002B03D00349044800E000BF10BDC046E8
:1020F000000000000C030020D8EF0000F8B50D0030
:102100000C1E1ED00468002C1BD0280009F0E6FA33
:10211000E6680700301E01D009F0E0FA874208D1D6
:1021200000239F420DD0E95CF25C914201D1013362
:10213000F7E70A22A35E002B02D01B01E418E2E7B6
:102140001C002000F8BD4A688B681032934204D20C
:1021500001230B74002318007047103B8B60002B89
:10216000F9D04268002A08D0991A09115181002239
:1021700043605A811A72DA60EDE70360F7E7031EE5
:1021800009D07F21027A0A40042A03D0052A01D00F
:10219000002000E018687047F0B5037889B00500AA
:1021A0000F002B2B2DD02D2B2CD101352C3B019347
:1021B0002B781A00303A092A02D92E2B00D0FAE0E7
:1021C000002000217D4E2B781C00303CE4B2092C0D
:1021D0001AD8B14224D802D1794B984220D8002392
:1021E0000A2206F087F8002302940393E3434A1C73
:1021F00001D1984214D8029B039C0135C01861415B
:10220000E1E701350023D2E7002B09D1019B002B28
:1022100020D080231B06994202D80CD100280AD076
:102220000024684EB14220D90A220023013406F06E
:1022300041F824B2F6E77F223B7A93431A000A233F
:1022400013433B72002342428B413A607B6001980A
:1022500009B0F0BD7F223B7A3860796093431A0061
:10226000082313433B72012354E02B781A00303AC1
:10227000092A03D8013424B20135F6E72E2B1AD1EE
:1022800001352E78303EF6B2092E14D84E4B9942C5
:10229000F6D802D14D4B9842F2D80A22002306F01C
:1022A00029F8002304960593013C049A059B24B267
:1022B00080185941E4E720232A789A430023452ACD
:1022C00044D16A782D2A27D1023501330A26029398
:1022D000B44600232E78303EF2B2092A32D8624644
:1022E00053439A22F3181E195200964228DD029A8F
:1022F0003B7A7F24002A15D0019A00200021002A71
:1023000001D080210906A3430C243860796023435F
:102310003B72029B01939AE72B2A01D00135D5E746
:102320000235D3E7019A0020002A07D028490C2261
:10233000A34313433B723860796094E72549F6E77D
:102340000135C7E7029A002A00D05B422A78002AAA
:1023500031D1E41805F0F8FF1F4E002C01DC1F4EB0
:1023600064420025002C14D001231C420DD0EB0048
:10237000F3181A685B68029006920793069A079B07
:1023800003910298039907F005FC01356410EDB242
:10239000E8E7019B002B02D080231B06C9187F228F
:1023A0003B7A93431A000C2313433B7202000B0049
:1023B0003A607B6057E70023ACE7C04699999919CA
:1023C00099999999FFFF0F00999901009899999906
:1023D0000000F0FF0000F07F50D7000008D7000099
:1023E000012313B50B4C009302213C22200002F084
:1023F0002FFD0949031E094800D0094905F04AF993
:10240000084B2000636102F011FD200002F0E2FFA2
:1024100013BDC0467803002098D70000B40E0020FA
:10242000B2D7000001000100F0B5162201250226F6
:102430003D4C3E4B85B063612000009202950196B1
:102440008023063A002102F00EF8092100271B2202
:1024500000912000491902950196392302F0ABF84A
:10246000334B34492361200005F003F9324B3349E3
:102470002361200005F001F93149200005F0F9F849
:10248000304B676123613049200005F0F6F82F4991
:10249000200005F0EEF82E4B2E492361234B20003F
:1024A000636105F0EAF82C49200005F0E2F81622F5
:1024B000390000922000029501968023113201F02C
:1024C000D2FF09213222009120004919029501967C
:1024D000392302F070F8214B21492361200005F0D7
:1024E000C8F8204B20492361200005F0C6F81449A4
:1024F000200005F0BEF81D4B676123611C492000D8
:1025000005F0BBF81149200005F0B3F8194B1A4942
:102510002361064B2000636105F0AFF80E492000EF
:1025200005F0A7F805B0F0BD780300200100010018
:1025300002001200B1D8000050001200FC0300207D
:10254000BED8000014001C005C030020C1D80000AD
:1025500050001C004A030020C6D8000002002900D9
:10256000CBD8000050002900E804002014003300FC
:10257000E204002050003300D00400200123F0B515
:10258000A7B03A4C0293DB1801932E33009310222C
:1025900050330021200001F066FF354E354D364B9B
:1025A000364F23617A696B693549666106A809F07F
:1025B00041F806A9200005F060F8324B324923614A
:1025C0002B6A1800059309F07FF8002833D1059B8A
:1025D0003A6A2E4906A809F02DF806A9200005F050
:1025E0004CF82B4B66612361AB691B78002B0BD138
:1025F00001330293013301930733009328222933D7
:102600004721200001F0D7FF1C4EAB69B269214978
:1026100006A809F00FF806A9200005F02EF81E4BB9
:10262000F1692361200005F028F8E969200005F030
:1026300024F827B0F0BD396A200005F01EF8002309
:102640006361013302930133019307330093200048
:1026500029331C22472101F0AEFF104B2A6A236167
:102660000F4906A808F0E6FFB7E7C0467803002048
:1026700001000100980000200200120074000020F8
:10268000FCD8000002001D0001D9000005D900009F
:10269000020029000CD900000200350048001D008E
:1026A00008D90000F0B5264B264C85B063610123A4
:1026B0000293DB1801932E33102200932000503335
:1026C000002101F0D0FE204F204B796823612000CB
:1026D00004F0D3FF1E4E2000716804F0CEFF1D4DA4
:1026E0002000696804F0C9FF1B4BB9682361200012
:1026F00004F0C3FFB168200004F0BFFFA968200008
:1027000004F0BBFF154BF9682361200004F0B5FF0E
:10271000F168200004F0B1FFE968200004F0ADFF8B
:102720000F4B39692361200004F0A7FF31692000B5
:1027300004F0A3FF2969200004F09FFF05B0F0BD5D
:102740000100010078030020740000200200140042
:1027500098000020BC00002002001F0002002B0097
:102760000200360010B5002802D1FFF75DFE10BD53
:10277000012802D1FFF702FFF9E7022802D1FFF793
:1027800091FFF4E7FFF750FE0249034804F08CFF85
:10279000EDE7C04622D80000B40E002010B5002896
:1027A0000ED105F013F8174C2368C01A164B984247
:1027B00005D90122154B1A7005F008F8206010BDEC
:1027C00001280AD105F002F80E4C2368C01A104BFC
:1027D0009842F4D90D4B0222EDE702280AD104F009
:1027E000F5FF084C2368C01A0A4B9842E7D9074BFB
:1027F0000022E0E70022054B074908481A7004F060
:1028000053FFDCE7000500203F1F000062030020AB
:102810006F1700009F0F00000CD80000B40E0020BE
:1028200070B5244C2378012B05D104F0CFFF224B47
:102830001860022323702378022B13D104F0C6FF03
:102840001D4D2B68C01A1D4B1A881E2353439842F6
:1028500008D30121082005F075FA04F0B7FF03231F
:10286000286023702378032B16D104F0AFFF124D9C
:102870002B68C01A114B1A881423534398420BD368
:102880000021082005F05EFA04F0A0FF00220C4BA6
:1028900028601A70042323702378042B09D104F0D4
:1028A00095FF054B1B68C01A064B984201D90023BF
:1028B000237070BDEE040020F00400203C000020D6
:1028C000F40400200F270000F8B5164D6B7B002B99
:1028D00012D00124144E154F33783C70002B04D1D4
:1028E00004F074FF124B34701860AC7B002C04D0E1
:1028F0000121092005F026FAF8BD04F067FF0C4B12
:102900001B68C01A0B4B1A88142353439842F3D305
:102910002100092005F016FA28003C70347002F0FE
:102920006BFEE9E7E403002009040020080400200E
:10293000040400203C00002010B50E2005F048F9EA
:102940000D4C0E4A23785B0098520F2005F040F999
:1029500023780B4A5B009852142005F039F923784C
:10296000084A5B009852152005F032F92378064A90
:102970005B00985210BDC046A80400205003002000
:102980003E030020D6040020C4040020F8B5070050
:102990000E0000240025A6420ADD6300F85E06F062
:1029A00089F9011C281C05F0A7FD0134051CF2E77C
:1029B000300006F07FF9011C281C05F037FFF8BD38
:1029C000F0B5484B85B01C7847482100FFF7DEFF83
:1029D0002100071C4548FFF7D9FF2100061C444889
:1029E000FFF7D4FF2100051C4248FFF7CFFF01226B
:1029F000414B041C1A704149381C06F029F8404923
:102A000006F026F83D49071C301C06F021F807F0B7
:102A100039FF00223B4B07F02FFBC0223A4BD20577
:102A200007F0B8F807F080FF3449061C281C06F0B0
:102A30000FF8364906F00CF83049051C201C06F04A
:102A400007F807F01FFF00222E4B07F015FBC022EE
:102A50002D4BD20507F09EF807F066FF311C041CD1
:102A6000381C05F0F5FF211C0290281C05F0F0FF32
:102A70000390381C07F006FF254B03220093022326
:102A800004F04CFE301C07F0FDFE224B03220093A5
:102A9000022304F043FE281C07F0F4FE1E4B032221
:102AA0000093022304F03AFE201C07F0EBFE1B4BC0
:102AB00003220093022304F031FE029807F0E2FEA5
:102AC000174B03220093022304F028FE039807F01B
:102AD000D9FE144B03220093022304F01FFE05B01D
:102AE000F0BDC046A8040020500300203E03002093
:102AF000D6040020C4040020A9040020EF33533B77
:102B00003333F7400000F83F66660340EC51D83F8E
:102B10005C0300204A030020E2040020D0040020CF
:102B2000FC030020E804002000B50C490C4B097898
:102B30000C4A95B09B7B927B02910B4905A80978C2
:102B400001910A49897B0091094908F073FD05A9A3
:102B5000084804F092FD15B000BDC04608040020EE
:102B60000C040020AC040020F4040020E403002046
:102B700013D90000B40E002000B5084B97B00193A4
:102B8000074B084A00930849084B02A808F052FD79
:102B900002A9074804F071FD17B000BDD004002061
:102BA000E20400205C030020D1D800004A0300208A
:102BB000B40E002070B5092413260A250121300027
:102BC00005F0C0F8280004F037FE0021300005F0C1
:102BD000B9F8013C280004F02FFE002CEED10121B1
:102BE000132005F0AFF870BD10B504002078002860
:102BF00004D008F00DFE20700134F7E710BD20224C
:102C000010B5037A13401A1E02D0FFF777FA0200BC
:102C1000100010BDF0B518308BB00D000492059374
:102C20000400FFF7ECFF002804D10023049A13707E
:102C30000BB0F0BD29002000FFF7E1FFFFF79FFA7E
:102C4000002409AF08AE0197009607AB06AA104909
:102C50000500069407940894099408F00BFD0428D5
:102C600009D00097330007AA0A49280008F002FD9E
:102C70000328DAD10694099B074A0293089B059919
:102C80000193079B04980093069B08F0A1FCCFE7F3
:102C90004AD9000059D9000065D90000F8B51830AC
:102CA0000E0015001F000400FFF7A9FF002814D034
:102CB00031002000FFF7A3FFFFF761FA3A0001009F
:102CC000280007F049FF064C0699200004F0D5FCC7
:102CD0002900200004F0E8FCF8BD2870FCE7C0469D
:102CE000B40E0020437C002B06D1C3685A1CC2607E
:102CF0001B78037401234374007C704710B50400F3
:102D00002000FFF7EFFF0A2807D8092809D200287A
:102D10000AD00123002023720AE00D2801D02028C8
:102D2000F7D100236374EBE7207A431E984101300A
:102D300010BD70B505000C00207800280CD02800CC
:102D4000FFF7D0FF002806D02378834205D1002367
:102D500001346B74F0E7022070BD0320FCE770B50E
:102D600004000D00FFF7BEFF0023A84201D16374E9
:102D70000133180070BD37B5C3B27F2804D80A6884
:102D8000501C0860137037BD00226C4622703F242F
:102D90006D462340803A134380096B7085B2C3B2FD
:102DA0001F2D0ED8403213436A4693706B4603338F
:102DB000013B18780028E6D00A68541C0C6010709B
:102DC000F6E76D46234000041343800DAB70C3B299
:102DD0000F2805DC202252421343EB7001ABE7E7DA
:102DE0001C40102380115B4218436B462243EA705B
:102DF00028710533DCE70000F7B505000026FFF772
:102E000071FF6E7401902800FFF76CFF0024019A97
:102E100003006C74824255D0A04201D10220FEBD55
:102E20005C284AD12800FFF75DFF0028F6D0264B2A
:102E3000752838D104276C742800FFF753FF002849
:102E4000ECD0402805D83038C0B20F2805D903206F
:102E5000E5E7202398433738F6E700232401013FB4
:102E60000443FFB2A4B26B749F42E5D1A0239B013F
:102E7000E318164A9BB2934202D8A405A60DC2E7F6
:102E800090239B01E3189BB22000934206D8802335
:102E90008005B402800D20435B02C0182900FFF7B3
:102EA0006AFFB0E702331A78002AD0D09042F9D1F5
:102EB0005B78002BCBD000226A742A68511C2960F1
:102EC0001370A0E72000AAE72EDC0000FF0300003B
:102ED00000232F2806D90133392803D95E2803D9C6
:102EE0007A2804D81800704700234028FAD9002314
:102EF0005A2282425B41DBB2F4E7F8B5DEB204004D
:102F00000F000525002E0CD000234374FFF7F6FEBA
:102F1000051E06D17D212000FFF721FF002838D0B3
:102F200000252800F8BD2000FFF766FF051EF8D138
:102F30002000FFF7E3FE051EF3D13A212000FFF742
:102F40000EFF002836D0236838001D706168FFF737
:102F5000D5F800283FD00100731E0022200000F0A9
:102F60004FF8051EDDD12000FFF7C8FE051ED8D1A1
:102F70007D212000FFF7F3FE0028D1D12C21200075
:102F8000FFF7EDFE002815D02000FFF7B7FE051E65
:102F9000C7D1236820006360FFF7A4FE2728C2D0B2
:102FA0002228C0D02000FFF79DFE0500FFF790FF0C
:102FB000002801D10325B4E70023637423682000AF
:102FC0005A1C22601D70FFF78DFE0500FFF780FF81
:102FD0000028F1D1ACE723681870236861690133D8
:102FE000236038006568FFF7AEF8002805D07F221F
:102FF000037AC56013400372ADE7042591E7000032
:10300000F7B504000E001F1CFFF778FE051E0190A7
:103010006AD12000FFF766FE662800D185E01ED841
:10302000272804D05B2823D0222800D087E02368FB
:1030300020006360FFF7E0FE051E55D17F21236865
:103040001870236860685A1C2260327A1B1A8A43FF
:10305000110004220A4332723060736044E0742825
:1030600055D07B2842D06E2800D068E04C4958E00B
:103070007F22337AFFB293431A0040231343356013
:10308000756033720525002F2ED06B461B7920000A
:103090006374FFF733FE051E26D15D212000FFF784
:1030A0005EFE002800D075E061693000FFF74BF844
:1030B000011E00D172E07B1E00222000FFF7A0FF5E
:1030C000051E11D12000FFF719FE051E0CD15D2150
:1030D0002000FFF744FE00285CD12C212000FFF7E0
:1030E0003EFE0028E0D103252800FEBD7F22337A72
:1030F000356093431A0020231343337275603B1CE1
:10310000002231002000FFF7F8FE0500ECE77F22E7
:10311000337A244993431A0006231343337201235D
:1031200033702000FFF705FEEFE77F22337A35701A
:1031300093431A000623134333721B49F1E720001F
:10314000FFF7D0FD00252027EBB22F280CD9392816
:103150000CD80135402D1FD0002363746319D87536
:103160002000FFF7BFFDEFE72B28F2D002002D3A39
:10317000D2B2012AEDD90200BA43D2B2452AE8D030
:1031800000222000E3181A7618303100FFF704F807
:103190000028A8D00025A7E73F23F1E70425A3E7EF
:1031A00029DC00001EDC000023DC00001FB5042227
:1031B000144B01211A60002206205960DA73124B69
:1031C0005960DA731860114B013818601048596063
:1031D000DA7302F016FA0F4802F013FA0E4B0F4C96
:1031E0000293019301235B42009340220C4B802108
:1031F000200001F003FD0B4A0B49200004F094FE6F
:103200001FBDC046AC0400200C040020E4030020D5
:10321000A0040020F8040020A0860100780300200C
:103220007C05002000000020614C000030B5012525
:1032300085B0124B029500229B5E114C0193114BFD
:10324000002100229B5E2000142200930E4B01F00F
:1032500018FA200002F0BEF8FA20800004F0ECFA20
:103260002900200001F04BFDFA20A84004F0E4FA08
:103270000021200001F043FD05B030BD34000020E6
:1032800078030020380000207ED9000070B5254C5E
:103290008AB0200001F0CAFD0121200001F043FCAA
:1032A0000021012361610293DB1801930A3300932B
:1032B0000A007433200001F07EF91B4B1B4E236182
:1032C0003378002B19D11A4A1A491B4B126804A8EB
:1032D00008F0B0F904A9200004F0CFF9174D2878C0
:1032E000FFF75CFA3378042B02D02878FFF73AFA1C
:1032F000200002F06FF80AB070BD1149022B0CD00B
:103300001049032B09D01049042B06D10F49200086
:1033100004F0AFF9FFF78AFFE0E7200004F0A9F915
:10332000DCE7C0467803002002000200EE04002023
:1033300098000020C7D70000C1D70000620300201A
:10334000D5D70000E5D70000FED70000F3D7000076
:1033500070B5564C564EA5445649300004F08DF9D0
:1033600004F034FA4AAC54AB2A224A93636086AB29
:10337000A360E36000230500FF326A442374D3771F
:1033800004F024FA4C4B401B98423BD8300003F029
:1033900059FE0028F4DD18ADC8232A000A213000A8
:1033A00004F0A3F90023EA5C01337D2A00D079E020
:1033B0000022EA54414E18AD4149300004F059F959
:1033C0002900300004F059F93E49300004F062F958
:1033D0002A217F20FF3169444A9BCA7F6360E368EA
:1033E0008243CA77A3606A46002350A913745376B8
:1033F0002374039300220A2302A8029505950794DB
:10340000FFF7FEFD304B314D00932A682000142356
:103410002F49FFF743FC2F4B200000936A681423C9
:103420002D49FFF73BFC2D4B20000093AA68142385
:103430002B49FFF733FC2B4B20000093EA68142341
:103440002949FFF72BFC294B200000932A691423FC
:103450002749FFF723FC274B200000936A691423B8
:103460002549FFF7D7FB254B20000093AA691423B9
:103470002349FFF713FC234B20000093EA69142330
:103480002149FFF70BFC214B214900932A6A1423A1
:103490002000FFF703FCE869FFF7A6FB86239B00EB
:1034A0009D4470BDC82B00D07DE783E7E8FDFFFF9A
:1034B000B807002040D80000E7030000B40E002049
:1034C000A2D80000AED800003EDC0000980000202A
:1034D00045D800004FD800004AD800005AD8000054
:1034E00056D8000064D8000060D800006FD80000F3
:1034F0006AD800007DD8000076D8000087D8000088
:1035000084D8000090D800008CD800009BD8000020
:1035100096D8000070B5294D2949280002F033F8EB
:10352000284C2749200002F02EF82549264802F0B1
:103530002AF86B7B002B02D1637B002B0AD001237E
:10354000224A28001370224A137002F055F8200016
:1035500002F052F8FFF764F9FFF7B6F9FA211D48B7
:10356000090102F052F8002801D0FFF7F1FE04F043
:103570002DF9194D194C2B68C01AC72807D904F02A
:1035800025F92860FFF7D8F92378013323702378D1
:10359000052B0AD9FFF714FAFFF7EEFAFFF7C4FA82
:1035A0000F4804F06FF800232370C8210D4802F083
:1035B0002CF8002801D0FFF769FE70BDAC04002094
:1035C000B80B00000C040020E4030020F4040020E9
:1035D000EE040020A004002038040020A8040020ED
:1035E000B40E0020F804002070B5E1253F4C6D02B8
:1035F0002900200002F0AEFB29003D4803F01AFD2F
:103600003C4804F019F93C49200004F032F83B49E9
:10361000200004F032F83A49200004F045F8394D12
:10362000280000F06DFA0121082004F03FFB012181
:10363000092004F03BFB0121072004F037FB0021A7
:10364000042004F07FFB0021052004F07BFB002117
:10365000062004F077FB0021082004F073FB002112
:10366000092004F06FFB0121072004F06BFBFA2016
:10367000800004F0E1F80221122004F017FB012180
:10368000132004F013FB2049200004F003F8FFF797
:1036900091FA642004F0D0F81C49200003F0FAFFEE
:1036A000280000F0FFF92800194900F01BFA280053
:1036B000322104F018F81749200003F0F5FFFEF757
:1036C0008FFEFFF7B3FD144801F034FF134801F0FB
:1036D00031FF134801F02EFF04F078F8114B124926
:1036E0001860200003F0D6FF70BDC046B40E002065
:1036F000B8070020C40900003FDC000052DC0000D5
:10370000C1D700007C05002057DC000066DC00000B
:10371000A086010071DC0000AC0400200C04002035
:10372000E4030020000500207FDC000070B50600E7
:103730000C008D18AC4207D0336821789B683000AC
:10374000984720700134F5E770BD7047704710B599
:103750000400406802F098F80023237610BD10B5ED
:10376000406802F0B6F810BDF8B5050040680C00DE
:1037700002F0AAF82B68E7B2260A9B68012810D14C
:1037800039002800FF2798472B68BC4304439B68F7
:10379000310028009847030220003840184380B2C7
:1037A000F8BD310028009847FF262B6800023440FE
:1037B00004439B68390028009847B4432043EEE750
:1037C00010B5040004F082F8200010BD10B54B1CA9
:1037D0000BD0102909D0EFF3108472B6102905DD43
:1037E00002234376002C00D162B610BD0123427E35
:1037F0001A43427618224A430449891816228A56E7
:103800009340C2691343C361ECE7C04694E70000EC
:103810004B1C17D0102915D0437E9B0712D4EFF311
:10382000108272B618234B430749C9180123897DBA
:1038300049B28B40C1699943C16100D14176002AE8
:1038400000D162B67047C04694E70000437E002B6B
:1038500005D09A0704D5837E002B00D062B670474E
:10386000DB07FCD5C369024A9BB2D360F7E7C046C9
:1038700000180040037E002B04D143768376C36199
:1038800001330376704700007FB5036902AE040080
:103890000D00029172608B4203D1828AB3889A42F2
:1038A00026D0200006223100103007F055F960685C
:1038B00002F001F87379E17A013B581E8341227BC3
:1038C00000936068002302F093F933790021013BF3
:1038D000DBB2022B01D8074AD15C074B2A009D427C
:1038E00000D91A00606801F0B7FF606801F0D9FFE5
:1038F0007FBDC0468CDC0000001BB70070B51826E9
:103900000400FFF7B7FF33000821207A0D4D434331
:10391000EB18595604F05AFA33000821A07A4343B1
:10392000EB18595604F052FA0821607A4643AD1953
:10393000695604F04BFA044B200006CBFFF7A4FFB6
:1039400070BDC04694E700007405002007B5437EB3
:1039500000910192002B07D09A070AD5EFF310834C
:103960005A425341837672B60099019AFFF78CFF51
:1039700007BDDB07F8D5C369014A9BB29360F3E743
:1039800000180040F7B500240125194B194A5D7154
:103990001A601C71184B1948083301930360184BC7
:1039A000184F4360184B194E03810D233A00310024
:1039B00045750461047583720A3B0476C47203730F
:1039C00004F0B2FA1248134B019A4360124B45754A
:1039D000038119233100026004613A000475837287
:1039E000163B05730476C37204F09EFAF7BDC04619
:1039F0007405002000093D0090DC00003405002023
:103A00008C0E0020000000200C0B00004D37000041
:103A100054050020940E0020171600000020704767
:103A200010B503689C6B0123A04710BD8C230022B6
:103A30009B00C154103BC3185A609A60DA6001239E
:103A40008375704710B5036801211B6B984710BD43
:103A5000F8B505000E0017000024BC4208D02B6802
:103A6000315D1B6828009847002801D00134F4E735
:103A70002000F8BDFC30406A704770478E239B00E1
:103A8000C15070478D239B00C15070470300FC3329
:103A90005A6A002A03D01B6AC018007E70470120B2
:103AA0004042FBE770B5060018250C49006902F09A
:103AB000E9F8306901F027FF2B000821307D084C20
:103AC0004343E318595604F081F90821707D4543BA
:103AD0006419615604F07AF970BDC046A0860100F1
:103AE00094E7000070B504000D00006901F020FFAC
:103AF0002900206902F0C6F8206901F004FF70BDBA
:103B000010B5006901F014FF10BD0000F7B5019376
:103B1000FA238026002504009B008360134B760067
:103B200008330F004560290000920360320018300E
:103B300007F02EF823002000FC332530DD61320031
:103B40001D6229005D62FF3007F022F888239B0088
:103B5000E3185D609D60DD606B461B78276123750F
:103B60006B461B79A57520006375FEBDCCDC00009B
:103B700070B506001825006902F05FF8306901F0A1
:103B8000C2FE2B000821307D064C4343E3185956F2
:103B900004F01CF90821707D45436419615604F056
:103BA00015F970BD94E7000010B50022FFF7E0FFA3
:103BB00010BD0300802210B5FC33DC685200944233
:103BC00008D05A6881545A680132D2B25A60DA6811
:103BD0000132DA6010BDF7B50400171E019302D15F
:103BE00000252800FEBD03000022FC33DA611A62C2
:103BF0005A620069013201F0CDFE061EF0D02300AA
:103C000020691833009301F058FF01000098FFF776
:103C1000D0FF01252069BD4214D001F02CFF0028FF
:103C20000FD0206901F096FE0221206901F09CFE70
:103C3000206901F042FF01000098FFF7BAFF01354B
:103C4000E8E70600206901F07DFE019B002B06D00D
:103C5000002E06D00321206901F086FEC1E7002E68
:103C6000BFD1013DBDE7002310B5827D9A420CD043
:103C7000882292008218D46880225200944204D094
:103C80002530FF30FFF795FF0123180010BD03001A
:103C9000FC33DA68002A09D09A68805C9A6801329D
:103CA000D2B29A60DA68013ADA6070470120404285
:103CB000FBE700228C2370B59B00827504000E0088
:103CC000C15C006901F066FE002806D1032120696D
:103CD00001F04AFE0225280070BD88239B00E318EE
:103CE000DD68002D11D020002530FF302569FFF759
:103CF000CEFFC1B2280001F08FFE0028EDD10321D4
:103D0000206901F031FE0325E5E7002EE3D0032111
:103D1000206901F029FEDEE710B51830FFF7B7FF84
:103D200010BD70B50400006901F09CFE002815D09C
:103D3000206901F0AEFE002811D0206901F00AFED2
:103D40000321206901F010FE8E239B00E558002D11
:103D500035D10023FC34E3612362636270BD2069C6
:103D600001F0A1FE002809D0206901F097FE00288B
:103D700004D0206901F09CFE0028DED0206901F00B
:103D800092FE002821D1206901F07EFE0028E5D0B6
:103D9000206901F08DFE002833D088239B00E318B2
:103DA000DB68FF21002B05D020002530FF30FFF716
:103DB0006EFFC1B2206901F047FEA075CEE723680F
:103DC00020001B699847A847C3E7206901F0C2FD9E
:103DD0002069032101F0C8FD206901F069FE002877
:103DE000BCD0882300229B00E3185A609A60DA60F6
:103DF0000123A3758D239B00E3589342AED09847CF
:103E0000ACE72300FC335A6A802320695B009A42A6
:103E100006D101F097FD0321206901F0A5FD9DE782
:103E200001F04BFE010020001830FFF7C2FE2069B0
:103E300001F090FDEFE7000010B50248FFF771FFB9
:103E400010BDC0467C05002010B513231222024984
:103E50000248FFF75BFE10BDA40E00207C05002089
:103E60007047F0B51D0089B00EAB00241C5F0FAB8E
:103E70001B8816000693A31ADA179B185340029367
:103E80006B1ADA179B1853400393039A029B019015
:103E9000934205DC23002C001D0033000E001900A6
:103EA000A64205DC2B000D001900230034001E0083
:103EB000331B9BB204934B1BDA179B185340079399
:103EC0006B4610229A5ED30F9B185B100093012360
:103ED0008D4221DA0593B44224DC019B039A1B68CE
:103EE0009B691F00029B934218DD22002900069B5C
:103EF0000198B847009B079A9B1A9BB21AB200928E
:103F0000002A06DA059AAD18049A2DB2D3181BB20E
:103F10000093013424B2DEE75B42DBE7069B2A0014
:103F20002100E5E709B0F0BD704710B504682469C9
:103F3000A04710BD37B506AC258804680095A46B72
:103F4000A04737BD37B506AC258804680095E46BFB
:103F5000A04737BD73B506AC0025655F07AC268862
:103F6000046801960095246CA04773BDF0B5160057
:103F700004000D0085B003930AAB1F8803685B69DA
:103F80009847039B2268013B9B191BB20093019742
:103F9000976A2B00320029002000B84723682000D0
:103FA000DB6A984705B0F0BDF0B505001C000E00B7
:103FB000170085B00AAB1B88013C03930368A41962
:103FC0005B69984703992A680191009723B23100F1
:103FD000946A28003A00A0472B682800DB6A9847BB
:103FE00005B0F0BDF0B50E0087B003930CAB0292A4
:103FF00000229B5E050004930DAB1B8834000593E3
:1040000003685B699847039A2B68B21894420ADAEE
:10401000059A210000921F6A029A049B280001342D
:10402000B84724B2EFE7DB6A2800984707B0F0BD35
:1040300013B501910E24015F0C22835E026800918A
:10404000146C00221100A04713BDF0B50400150048
:104050000E0087B004930CAB00229B5E05930DAB62
:104060001B88039303685B699847039A236800924F
:104070005F6A2A00049B31002000B847059B039922
:104080005A1E2368009152195F6A3100049B200078
:1040900012B2B847039A236800921F6A2A00059B50
:1040A00031002000B8470499039A2368013900922F
:1040B000891909B21F6A2A00059B2000B8472368A6
:1040C0002000DB6A984707B0F0BD7047F0B585B0B7
:1040D0001E000AAB0027DF5F0BAB1B881400050036
:1040E000029103930268B14210D1BC4202DC3B0052
:1040F00027001C00039901340091E31B966B1BB24F
:104100003A0002992800B04705B0F0BDBC4211D179
:10411000029BB34202DC3300029E0293029B03998E
:10412000013300919B1BD76B1BB22200310028008A
:10413000B847E9E753699847039A2B6801920097BB
:104140009F6A2800330022000299B8472B68280094
:10415000DB6A9847D8E70323194010B50822835E2D
:1041600081760A24025F012904D0032902D08381C9
:10417000C28110BD8281C381FBE700004281C28100
:104180000122524242610222002310B5FF32074C45
:104190000283013A0834FF3A43600460018181815F
:1041A00003618376C2760377036210BD1CE20000D0
:1041B000F0B58BB0019310AB1B780592069311AB51
:1041C0001B88012202936B469B880400D21A5B0075
:1041D0005B421BB20993002312B20491039207932E
:1041E000079B019A934200DB9AE0039B002B0CDBB8
:1041F0001300013B1BB20193099B02339BB21AB21D
:104200000992039A9B181BB20393079D0135ABB229
:1042100000936B4600229B5E039A0793009B5B0012
:1042200001339B1804221BB20393069B13421AD03E
:104230006B461D8A9F889E8A009BF219E9182368A5
:1042400012B29B69089509B21D002000029BA84785
:10425000009B2000F618089B32B2DD19236829B2B2
:104260009F69029BB8470222069B13421AD06B46F5
:104270001D8A9F889E8A009BF21BE918236812B250
:104280009B69089509B21D002000029BA847009B6E
:104290002000F21A089B12B2DD19236829B29F6927
:1042A000029BB847069B1B071AD56B461D8A9F8A3F
:1042B0009E88009BA91BFA18236812B29B69089577
:1042C00009B21D002000029BA847009B0899F6191F
:1042D000C91A236832B29F6909B2029B2000B8470D
:1042E000069BDB0700D47BE76B461D8A9F8A9E886E
:1042F000009BA91BFA1A236808959B6920001D00E2
:1043000012B2029B09B2A847009B0899BE1BCD1AA6
:10431000236832B29F6929B2029B2000B8475FE749
:104320000BB0F0BDF0B51C008FB00692012214ABAB
:104330001B780591079316AB1B8805000893A3B261
:10434000D11A93405B421BB20C9315AB1B8809B288
:1043500009939B189BB20B930023039104930D9236
:10436000049BA3427DDA039B0294002B0BDB631EAC
:104370001BB202930C9B02339BB21AB20C92039AAB
:104380009B181BB20393049E039A0136B6B233B254
:10439000049373009BB20A9301339B181BB20393DF
:1043A000049A029B93422BDB079B0D9A134211D078
:1043B0006B461A890B995300CB180699089F8A1AE5
:1043C0000599286871180097076A1BB212B209B2E2
:1043D0002800B8470222079B134211D06B461A8966
:1043E0000B995300CB180699089F8A1A05992868DB
:1043F000891B0097076A1BB212B209B22800B8479E
:10440000029B9C422BD0079B0D9A134211D0099B13
:104410000A9A013BD318069A089F05992868013229
:10442000921B09190097076A1BB212B209B2280041
:10443000B8470222079B134211D0099B0A9A013BFD
:104440000599D318069A091B089C28680132921B0B
:104450000094076A1BB212B209B22800B847029C46
:104460007EE70FB0F0BDF0B58DB01F0012AB1500A8
:1044700000229B5E0B91079313AB0021595E14AB96
:104480001B88040003936B469A8B079BBB4200DD9D
:104490003A1C12B2D30F9B185B101E1C8B4200DD1E
:1044A0000E1C33B20593236820005B6998476B4666
:1044B0009B8DB2B20893B3B20693089B76009B180B
:1044C0001BB20493BBB20993B3B20A930A9A099B35
:1044D00004999E1A039A2368009236B25F6A2A00F2
:1044E00033002000B8476B46ADB29F8B6B1EFB18A4
:1044F0009BB207936B4603991C229A5E2368009136
:104500005B6A04999C46200033006646B047069BD0
:10451000039A5D190A9B2DB2FE1A2368009236B2E7
:104520001F6A2A0033000B992000B847089B039AA2
:104530005F1E099B0092DF192368BFB21B6A39B264
:104540009C462A00330020006646B047039B2A00A1
:1045500001930123049900932000059BFFF728FE97
:10456000069B2A00FE1A039B36B2019302233100F8
:1045700000932000059BFFF71BFE079B069A310066
:104580009D1A039B2DB2019304232A00009320005F
:10459000059BFFF70DFE039B2A0001930823049956
:1045A00000932000059BFFF703FE23682000DB6AD1
:1045B00098470DB0F0BDF0B58DB01E0012AB0B9258
:1045C00000229B5E0F00059313AB0021595E14ABD4
:1045D0001B88040006936B469A8A059BB34200DD54
:1045E000321C12B2D30F9B185B101D1C8B4200DDD6
:1045F0000D1C2BB20A93236820005B699847BBB25D
:1046000007930699ABB20893079B0191AAB205994B
:104610006D009F182268B3B2AEB200913FB2099309
:104620009B1BD56939000B9A20001BB2A847089A3A
:104630000B9B944663441DB2059B2000013B9E1BCF
:10464000079B36B2591E099B01965918069B891A79
:10465000029301232A00009309B20A9BFFF762FE2E
:10466000069B2A00029302233900009320000A9B34
:104670000196FFF757FE23682000DB6A98470DB0CC
:10468000F0BDF0B58DB0089312AB039200229B5E93
:104690000791049313AB00229B5E0400099314ABB3
:1046A0001B880A9303685B6998470722049B039F52
:1046B000D91DCB1713405B18DB10059300231D0099
:1046C00001930B92039ABBB206939B1A099A1BB2F1
:1046D0009A422BDD0023049A93421EDA9AB2029288
:1046E0000B9A6D0099B2EDB2114204D1089A01996A
:1046F000DB105218D55C6BB2002B0ADA079B029ACA
:104700002000D118236809B29B693A001E000A9B59
:10471000B047029E013633B2DDE7059A019B94460D
:10472000069F6344013701933FB2CBE72368200023
:10473000DB6A98470DB0F0BDF0B595B01D001AAB1F
:104740001B88040005931BAB1E881CAB1B780891CB
:1047500003931DAB1B7804920293036A002B00D0D5
:10476000C4E00C22835E8B4200DC7DE00E22835E7F
:10477000049A934278DD0623039A53435B18002B77
:1047800072DD029B049ADB009B18002B6CDD037F1B
:10479000002B03D1AF2D01D90135EDB223682000E4
:1047A0005B69984705235D430B9300230793984B60
:1047B0005B190F93079A0F9B9B5C0A936B469B8B2D
:1047C00009936B469B890D936B460D9A1F8C099B31
:1047D0005343FB181BB20E9308230C93002306933C
:1047E00001220A9B2068134252D06B461A8B198A09
:1047F000039B012B3AD1029B012B37D1099B521805
:104800008569D919059B12B209B22000A847069BF9
:1048100001335BB206930A9B5B080A930C9B013B36
:10482000DBB20C93002BDBD1079B01335BB2079308
:104830000B9B013BDBB20B93002BBBD1059BB3421F
:104840000ED0039B2268012B3FD1029B012B3CD150
:1048500005370096156A39B20733049A2000A84735
:1048600023682000DB6A984715B0F0BD6B460C2525
:104870005B5F029D6A438A18059912B201916946ED
:104880000825495F0091C5690E992000A847BEE739
:10489000059BB342BBD06B46198B1A8A039B012B35
:1048A0000AD1029B012B07D1099B5218D91912B2C8
:1048B00009B285693300A8E76B460C255B5F029D52
:1048C00001966943521812B2D9E76B460C215B5E20
:1048D00005210D980196414302987918C000009077
:1048E000D56909B2049A2000A847B9E71A7AAD1A27
:1048F000EDB25A68ED001B68551913932B88099384
:10490000AB780D93EB7811930523EB560E930623AA
:10491000EB560F93039B012B02D8029B012B56D918
:104920006B4638229B5E0B936B463C229B5E0C933E
:104930000027236820005B69984707970697119B1B
:10494000069A9A4200D38BE76B461B8A00260A938D
:104950000C9B9B18029A53430A9AD3181BB21093CC
:104960003B000D9A96424BD25A1CD2B212920722A9
:10497000134207D1099B0999139A0133525C9BB2E8
:10498000079209936B461B7F5BB2002B17DA6B46CD
:10499000198C039B2068012B1DD1029B012B1AD17E
:1049A0000A9B0F9A9A18069BD2180E9B12B2C9182E
:1049B000836989191D0009B2059B2000A847079B40
:1049C00001365B00DBB20793F6B2129BC9E7002306
:1049D0000C930B93ACE76B460C229B5E0B9A039DEA
:1049E00092196A438918059A09B201926A46082504
:1049F000525F0092C26920001500109AA847DEE7B6
:104A0000069D0D9B0135FF18EBB2FFB2069396E7AA
:104A10001CDD0000F0B5026A85B004000B00002A1E
:104A200034D10A2908D1437E0282DB00628A9B18B6
:104A30006382012005B0F0BD0D29FAD0E17E007E31
:104A4000657E00290ED01026A15F062646438919EF
:104A50000C27E65FB14205DD1226A15F2282EA0043
:104A6000521862820290E08A1221625E0190A08A4E
:104A70001026A15F009003952000FFF75DFE06223F
:104A8000237E5343228A9B182382D2E70A2905D129
:104A900000230382127B437E5343C7E70D29C8D00E
:104AA000117A8B42C5D3907A9842C2D3591AC9B2AF
:104AB0005068C9004518AF78002F28D0E978002940
:104AC00025D0E17E207E667E002913D0052169561F
:104AD000C91941438C461021675EBC440C21675EB6
:104AE000BC4507DD1227E15F00272782127B724356
:104AF000521862820290E08A1221625E0190A08ABE
:104B00001027E15F009003962000FFF715FE2B7938
:104B1000227EB6E7002900D101310176002A00D1BA
:104B200001324276704710B50A00FFF7F3FF10BD5F
:104B3000F0B500291BDB0C25445F8C4217DD002AF1
:104B400015DB0E25445F944211DD847E022C0FD0CC
:104B5000032C16D0012C04D1D2430489A4180A00D6
:104B600021B2012B13D0002B22D0022B32D0F0BD6A
:104B70000489013C611AD443428909B2121912B264
:104B8000EFE74489013C641A110022B2E9E70725E6
:104B9000D4172C40A4182A4093400827C65FE4107D
:104BA00074436118C46A61180A7813430B70DEE716
:104BB0000724D31723409B180826855FDB106B431F
:104BC0005918C36A22405918012393401A000B78E0
:104BD0009343EBE70724D31723400826855F9B18F0
:104BE000DB106B435918C36A012022409040020039
:104BF00059180B785A400A70B9E7000070B50025C3
:104C000004001E0012B204AB09B25D57FFF7B6FAFA
:104C1000104B08332360002363629E4200D10E4E86
:104C20002100FF223331A662E3620A704A708A7063
:104C3000CA70220037321570059A2000A265069AC4
:104C4000E265064A626622006432137101235371E1
:104C500070BDC04614E700007C05002000093D003F
:104C6000054B10B5083304000360C06A002801D06A
:104C700005F056FF200010BD14E70000F8B5040051
:104C8000806A0D00002814D023003033197803689F
:104C9000DB6A9847A06A002103681B689847A06AEE
:104CA000290003681B689847A06A03685B6B9847F4
:104CB000F8BD226C216D1368606A8B431360002875
:104CC00004D0036829009B689847F1E708218020F9
:104CD000E36BA26BA76C166828420ED03E431660A9
:104CE0001E68E76C01393E431E601E68E76C400891
:104CF000BE431E600029EDD1DAE7BE43EFE770B591
:104D00000400806A0D00002812D00368A16D9B6A20
:104D1000984729004D1EA9412000A631FFF7AEFF9C
:104D2000A06A002812D00368E16D9B6A984770BDA5
:104D3000606A002804D00368616EDB69A26E984740
:104D4000626C616D13688B431360E2E7626C616DA6
:104D50001368606A0B4313600028E8D003681B6A7D
:104D60009847E4E7F7B50400806A8B180D000193BB
:104D700000282BD02700036830373978DB6A984742
:104D8000A06A0021036801261B689847A06A019A5F
:104D90000368954217D0FE2E0CD95B6B9847A06A2A
:104DA000397803680126DB6A9847A06A0021036806
:104DB0001B689847A06A2978036801361B689847E2
:104DC000B6B20135E2E75B6B9847F7BD226C216D07
:104DD00013688B431360019BAB42F6D02B78606A5B
:104DE0000093002805D0036800999B689847013517
:104DF000F1E708208026E36BA26BA76C0099BC4604
:104E000017680E420FD061460F4317601F68E16CB0
:104E100001380F431F601F68E16C76088F431F60E5
:104E20000028EAD1E3E761468F43EEE7072110B59A
:104E30000A22835E0733DA170A40D2180821435E3C
:104E4000D2105A43C06A002105F0A2FE10BD000036
:104E5000F0B587B004930CAB1B7804000593C36ACC
:104E60000E001500002B1BD02000FFF7DFFF0A23E8
:104E7000E25E0823E15E202A25DC203AD30F9A184F
:104E80000B00733BD90FC918012302931F33521033
:104E9000491001935333009312B209B2B04B24E08E
:104EA0000A22835E07220733D8171040C018082251
:104EB000A35EC010584305F029FEE062031ED3D163
:104EC000180007B0F0BD403AD30F9A180B00523BC0
:104ED000D90FC918012302933F33019312335210A3
:104EE000491000939F4B12B209B22000FFF7C9FB93
:104EF000230031331E70A06A002800D19CE0002DF1
:104F000000D097E00A23E55E203D6B1E9D413C35B5
:104F1000230030331D70059B002B00D11BE103687B
:104F2000DB699847049B002B1BD0250000203735F8
:104F30002856002815DBC0B2012102F0B7FE01217E
:104F4000287802F0FFFE012002F076FC002128788C
:104F500002F0F8FE0A2002F06FFC2878012102F02E
:104F6000F1FEA06A002800D1CBE00368A16D9B6A26
:104F7000984704227C492000FFF7F4FE6189200055
:104F80000139C9B2FFF77AFE2500784904222000D2
:104F9000FFF7E8FE00233135EB561421012B00D139
:104FA00004392000FFF76AFE260004227049200021
:104FB000FFF7D8FE8F2360363370A3686D4A02274F
:104FC00093420BD06C4A934200D0A8E00022AA562C
:104FD000CF23012A00D1303B12273370DA21200081
:104FE000FFF74CFE39002000FFF748FE812120002A
:104FF000FFF744FE31782000FFF740FED921200062
:10500000FFF73CFE0023EB56F121012B00D1CF39F5
:105010002000FFF733FE200006225849FFF7A2FECA
:10502000A06A002800D188E00368E16D9B6A984778
:10503000012345E76DB26BE7250027003535287859
:105040000121363702F032FE3878012102F02EFEBF
:10505000002318210126EB56494D4B435A57494826
:10506000D201121822643200EB185B689A400023C8
:105070002265FB564B435A574349D2015118121827
:1050800062643200EB185B68606A9A4013006265E4
:105090000A6913430B61002806D0059B002B00D141
:1050A00040E70368DB6A3CE7270033373100387894
:1050B00002F0FCFD2300343305931878310002F030
:1050C000F5FD00231821FB562E484B435A57EB1889
:1050D000D2011218A26332005B689A40059BA26459
:1050E0001B785BB24B435A57ED186B6826499E40BC
:1050F000D2015118E6640B691218B343E2630B61E5
:1051000010E7606A002804D00368616EDB69A26E54
:105110009847626C616D13688B43136029E71B4AE3
:105120000227934200D059E70022AA56AF23012A52
:1051300000D19F3B3370022750E7626C616D1368AA
:10514000606A0B4313600123002800D1B8E60368AE
:105150001B6A98476CE7049B002B00D0E5E604E748
:1051600034E5000074E200007CE7000080E7000006
:1051700084E70000800020008000400088E70000F5
:1051800094E700001044004100440041600010001A
:10519000F0B5140005AA1688002C41DB0A25425FF1
:1051A000A2423DDD002902DA5B1800211BB2082271
:1051B000855E5A18AA4201DD6B1A1BB2002B2FDD47
:1051C0000727E2173A401219D2105543C26A01204C
:1051D0003C40A04069185218C0B2012E0CD0002EDD
:1051E00013D0022E1CD1013B1BB2591C18D01178D0
:1051F000414011700132F6E7013B1BB2591C0FD040
:105200001178014311700132F6E7C043C0B2013B8F
:105210001BB2591C04D01178014011700132F6E71D
:10522000F0BD0000F0B505AC2588002976DB082428
:10523000065FB14272DA002A02DA9B1800221BB222
:105240000A27C45FD718A74201DDA31A1BB2002B9F
:1052500064DDD2B2DCB2D30873435918C36A59185B
:1052600007231A401FD001339A1A314BD2B29B5CEC
:10527000944254D2FF26171B3E413340012D06D0E5
:10528000002D08D0022D49D10E78734001E00E7830
:1052900033430B7002E00E789E430E7094423DD370
:1052A0000826835FC918A31ADBB2072B22D9022D67
:1052B00010D11A000C78083AE4430C700825445FBA
:1052C000D2B20919072AF5D80722134026D0194A65
:1052D000D35C19E02C00621E94411A006442E4B2CF
:1052E0000C700827C65F083AD2B28919072AF7D886
:1052F00007221340002B11D00E4AD35C012D06D09B
:10530000002D08D0022D09D10A78534001E00A7817
:1053100013430B7002E00A789A430A70F0BD012D26
:10532000B5D0002DB7D0022DAED08919BBE7C0464D
:105330006CE7000074E7000037B5140006AA158872
:10534000827E022A0DD0032A18D0012A11D1E2430D
:105350000489A41824B20A0000952100FFF762FF17
:105360000BE0E2434489C918A418028924B2511AF7
:1053700009B200952200FFF70BFF37BD4289C9181B
:10538000511A09B2E7E737B5140006AA1588827EDC
:10539000022A0DD0032A18D0012A11D10289E4185B
:1053A000141B24B20A0000952100FFF7F1FE0BE068
:1053B000CA430189E4188918428909B2141B24B22E
:1053C00000952200FFF72EFF37BDCA434189891897
:1053D00009B2E7E7F7B50400806A00284DD00368FA
:1053E000A16D9B6A9847052250492000FFF7BAFC3F
:1053F000218920000139C9B2FFF740FC07210A23A7
:10540000E25EA06A0732D3170B409B182289DB109B
:1054100053439BB20093E66A002846D027000368F6
:1054200030373978DB6A9847A06A40210368012544
:105430001B689847009BA06A013B9BB20093009AAF
:10544000036811003A4A914225D0FE2D0CD95B6BBE
:105450009847A06A397803680125DB6A9847A06AF3
:10546000402103681B689847A06A317803680135BA
:105470001B689847ADB20136DCE7606A002804D0AB
:105480000368616EDB69A26E9847626C616D136898
:105490008B431360A7E75B6B9847A06A002838D05E
:1054A0000368E16D9B6A9847F7BD226C216D136814
:1054B00001960B431360009B013B9BB200931A00C3
:1054C0001B4B9A42E9D0019B606A1978002806D0EC
:1054D00003689B689847019B01330193EBE7082021
:1054E0008025E36BA26BA76C16680D420ED0374384
:1054F00017601E68E76C01383E431E601E68E76C4B
:105500006D08BE431E600028EDD1E4E7BE4316607F
:10551000EFE7626C616D1368606A0B4313600028EB
:10552000C2D003681B6A9847BEE7C0468EE70000FA
:10553000FFFF0000030002685B6810B5D0B20021D5
:10554000002B00D1022102F0B1FB10BD10B50068A4
:10555000C0B202F023FC10BD10B50400FFF7F6FF47
:105560006368984202D10120A07310BD0020FBE7C0
:105570000B7810B55B000C000B70FFF7EDFF237884
:105580001843207010BD70B50D00010004000F31EC
:10559000FFF7EEFF237DE07B002B2AD138229043DA
:1055A000C02805D1E37301332373637A0133637237
:1055B0003822E37B9343072B09D1F833E37302F0DE
:1055C00005F90123E372237A206101332372E37B1F
:1055D000FF2B01D0002070BD02F0F8F82369C01A3B
:1055E000A842F7D30120A37A60731B18A372207519
:1055F000F1E70028FBD0EDE70023C3720373437388
:105600007047002303704380704770B504000D009D
:1056100002F0DCF863680022C31A9D4201D8606082
:105620000132100070BD10B501211A2002F03EFBBE
:1056300001211A2002F086FB01211B2002F036FB1B
:1056400000211B2002F07EFB10BD000010B50248B7
:1056500001F0A7FE10BDC046B807002010B50248F3
:1056600001F09FFE10BDC046FC09002010B50248A5
:1056700001F097FE10BDC046400C0020F0B51F4958
:1056800085B01F4800F058F81E491F4800F054F834
:105690001E4D1F49280000F04FF81E4E1E493000D5
:1056A00000F04AF81D491E4800F046F81D4F1E49FB
:1056B000380000F041F801240323390000930194DD
:1056C00023000022194801F0E5FD00233100019379
:1056D00000941D331E22164801F0DCFD19230393AC
:1056E000013B0293163B01930094143317222900C7
:1056F000104801F08BFD05B0F0BDC0460008004227
:10570000840E0020000C00428C0E0020940E00201D
:10571000001000429C0E00200014004200180042BD
:10572000A40E0020AC0E0020001C0042B807002090
:10573000FC090020400C0020002303710160704729
:105740009446F0B59E1E721E964162460568920709
:105750002F6836063A4332432A60072505AC247881
:105760000068A4012940214342680024022B00D094
:105770005C03114321434160F0BD30B5C02503688F
:10578000AD031C6812052A402243C0240904A40268
:1057900021401143196003685A6814435C6030BDAE
:1057A0000123026811680B43136003681A68D2076B
:1057B000FCD4DA69D207F9D4704702230268116871
:1057C0000B4313600268D3699B07FCD470470268DF
:1057D000137E9B0702D40379002BF9D100230371B8
:1057E0007047002203685A8370470368187E400799
:1057F000C00F70470368187EC00970478023026895
:105800005B42117E0B43137670470368588B800709
:10581000C00F704702230268518B0B4353837047BC
:105820000368187EC007C00F70470368188DC0B2A8
:10583000704703681A7ED207FCD589B21985012307
:10584000037118007047012203689A75704701229E
:1058500003681A757047000070B5012604684B088C
:1058600033403140256809075B070B432B43236016
:1058700004685100034802F069FB0138C0B220738C
:1058800070BDC046006CDC020123026811680B4346
:10589000136003681A68D207FCD4DA69D207F9D416
:1058A00070470223026811680B4313600268D369D2
:1058B0009B07FCD470470368DA699207FCD4022185
:1058C0001A688A431A607047036818684000C00F5E
:1058D00070470268936A5B0A5B021943916203682E
:1058E0001A7E5207FCD5986AC0B27047012302683D
:1058F00011680B43136003681A68D207FCD4DA6995
:10590000D207F9D470470223026811680B43136071
:105910000368DA699207FCD430215A8B8A4311005C
:1059200010220A435A830268D3695B07FCD470478C
:105930000221026813688B4313600268D3699B07D6
:10594000FCD4704780230268DB02116851680B4366
:1059500053607047036803491A685A680A405A60DE
:105960007047C046FFFFFBFF032230B503681140BC
:105970001C68074D5A6809042A40E4061143640F65
:105980005960052C03D10268D3695B07FCD430BD94
:10599000FFFFFCFF70B5056804006B8B9B069B0F37
:1059A000022B0DD06B8B00209B069B0F032B32D05C
:1059B0006B8B9B0704D56B8B9B069B0F012B2AD10E
:1059C0006B6A49001143DB0AC9B2DB020B436B620D
:1059D0002368002A13D11A7ED207FCD55B8B9B0665
:1059E0009B0F022B04D0490800222000FFF7D2FFB2
:1059F0002368588B4007C30F012058400BE0187EE6
:105A00008007C00FF4D11A7ED207F8D5C02259689A
:105A100092020A435A6070BD036828331970026805
:105A2000107EC007C30F508B002B06D1C007C00FDC
:105A300008D1538B9B07F3D570474007C30F012054
:105A40005840F9E71800F7E703682833197003682E
:105A500000201A7E520704D5588B01234007C00F3F
:105A60005840704703681868C006400F0438434226
:105A70005841C0B270470368588B8006800F0238C7
:105A800043425841C0B270470368187E4007C00FB8
:105A900070470368187EC007C00F70470368588BB3
:105AA000C006C00F70470368187E8007C00F70479C
:105AB0000368588B0007C00F704703681A68D20646
:105AC000520F052A05D11A7E920702D41A7ED207F8
:105AD000F9D528331878C0B2704700000368214A0E
:105AE00030B593422FD0204A93422FD01F4A934281
:105AF0002FD01F4A93422FD01E4A93422FD01E4AC6
:105B000093421FD10E2319220121032599401B48DE
:105B1000C024016099082B40AB40FC359D408900B2
:105B20000918A4000859A843C0259D402B00034331
:105B30000B518023DB011A43114B5A805A7852B221
:105B4000002AFBDB30BD09231422DDE70A231522DE
:105B5000DAE70B231622D7E70C231722D4E70D230D
:105B60001822D1E700080042000C00420010004259
:105B70000014004200180042001C004200E100E056
:105B8000000C0040F8B504000F0016001D00FFF7E0
:105B9000A5FF2000FFF704FE1C21BB000B4071078E
:105BA0002268090C0B431360842322689375012F2C
:105BB0001AD11021012E00D008390C4B6943186806
:105BC000C00002F0C3F90722216802408B8952030A
:105BD000DB04DB0C13438B81226803049089DB0C0C
:105BE000400B400318439081F8BDC04608010020D7
:105BF000F7B50600019308AB1F780D001400FFF7FE
:105C000043FE3000FFF76AFFC022240592031440D0
:105C1000BA070C2717433C43C0270722BF022D04B5
:105C200033683D4025431D60019B316813401A00D5
:105C300080239B0213434B60F7BD70B504000D0039
:105C40001600FFF74BFF2000FFF750FE1C222168D3
:105C50006D000B6893431A0010231343FF220B605F
:105C6000236815405D62002E04D001232268516A2A
:105C70000B4353620723226893752268D3695B073D
:105C8000FCD470BDF8B504000F00FFF727FF20001B
:105C9000FFF72CFE1422236879001A600C4B25684C
:105CA0001E68300002F052F90A490400300002F088
:105CB0004DF97D23FA215843C90002F047F9FF232B
:105CC000241AE868053C1C4098430443EC60F8BD86
:105CD0000801002040420F000020704770B50F26D9
:105CE000CB1D013902003240D5B22C0000093034FE
:105CF000092A00DD07341C70013B8B42F2D170BDD4
:105D000010B50C000B4B1868FFF7E8FF21000A4B99
:105D100008311868FFF7E2FF2100084B10311868BE
:105D2000FFF7DCFF2100064B18311868FFF7D6FF9C
:105D3000202010BD0CA0800040A0800044A0800066
:105D400048A0800008B4024B9C46103808BC60474D
:105D5000015D0000704770473F20704713B56B46E8
:105D60000268D9710733546819000122A04716BD93
:105D700070B50A260B7892B06E44023305000B70A2
:105D80003C220021300004F003FF394801AC0690AA
:105D9000384824210790062020776846364AA174A7
:105DA0002281364A364BA281FD3AFF3A8018C177EC
:105DB000684623390630C17768460730C17702A8A4
:105DC000C1770720F277032608316944C87703A911
:105DD000CE7710212B366E443170092621851F3174
:105DE00069440E700CA9053E0E70332123800223F6
:105DF00069440B7006360DA90E7022493536A1860E
:105E00003B216E44307010A86274E27702703D321C
:105E100069446A440B70137040210022E3702371BF
:105E20006371A37341336B44218719705A702B7DC2
:105E3000C039A370A37263770133DBB2A3776A7DA5
:105E40000B200D0068441543C5773120684403706A
:105E50003A23501C6B441870412302320A436B44AE
:105E60001A7021004222084800F004FD12B070BDF3
:105E700010010424020605240904000001020000A8
:105E8000080B000007050000180F002008B4024BA3
:105E90009C46103808BC6047715D0000F8B5027D73
:105EA0000B7904000D0000279A420CD10B784E7834
:105EB000A12B0AD1212E06D10100072234311C4822
:105EC00000F0D8FC01373800F8BD212BFBD1202E83
:105ED00023D1010007223431154800F00DFC962330
:105EE000626BDB009A421FD13B342378DB071BD463
:105EF000FA2001F0CBFF00210D4800F0C3FD01277F
:105F0000232EE0D1EB78AA781B021343094A002123
:105F10000748136000F0B6FDD5E7222EEFD103004D
:105F20008A783B331A70DAE701F0BAFFE3E7C0463C
:105F3000180F00200001002008B4024B9C461038C6
:105F400008BC60479D5E000010B534300822002177
:105F500004F01EFE10BD000010B5417D006A013145
:105F600000F002FB034B1B6801335A1E93411818C3
:105F700010BDC0460401002010B5417D006A023109
:105F800000F008FB10BD10B5417D006A023100F041
:105F9000CFFA10BD70B50D00417D04001300023131
:105FA0002A00006A00F0BCFB002801D101236360D5
:105FB00070BD000010B5054C23685A1C04D103685D
:105FC0005B69984703002060180010BD04010020A1
:105FD000074A0300106810B5411C03D001235B423F
:105FE000136010BD597D186A013100F049FBF8E7D4
:105FF0000401002070B5050001F0E8FBF423FF3335
:106000000024984207D93B352C780A20631E9C4116
:10601000E4B201F011FC200070BD00207047704711
:1060200070470000FA239B0010B58360114B0022DB
:10603000C3820300283383610F4B04004260C261B6
:106040001800503323610830631D21622060DA7725
:106050000A4A2F3303CA03C38323A362813BE3624B
:106060008033236301F0CAFA2100103101F098FA5D
:10607000200010BD03020000B4EA0000ACEA0000FA
:10608000022110B5094B1A68437D5B01D318FF3319
:106090009C7A21439972437D0133DBB25B01D318B3
:1060A0000122FF33997A0A439A7210BDD01300205F
:1060B00010B502490248FFF7B5FF10BD180F0020C8
:1060C000B40E0020704710B5040001F0FFFB200063
:1060D00010BD0000F0B5822919D1C3B2294D5A0173
:1060E000AA189169284C80010C40C02189052143E0
:1060F00091612649083340187021506128685B017E
:106100001A5C8A43110030220A431A54F0BD002958
:10611000FCD1C026C1B21B4C4B01E3189A681A4D42
:10612000B6052A4032439A60194A800182185A60A3
:106130000A000727246808325201115DB9430F0095
:106140000121394311559F6910493D4040182E43A4
:106150009E6158617020115D814308001021014348
:10616000115599680B48A218084080214903014342
:1061700099609968890B89039960402311790B43D1
:106180001371C3E7D0130020FFFFFF8F440F0020DF
:1061900004110020FF3F00F0EFF3108303600123A0
:1061A000436072B670470368002B02D162B6BFF33A
:1061B0006F8F704773B5836D0400002B1BD10600F1
:1061C000A83635786846FFF7E7FF019BEDB2013B43
:1061D00002D33578EDB2FAE768460193FFF7E3FFA3
